:060000000A128A110C280F
:10000800FE00030EF0000A08F1000A128A15502AB1
:100018000A128A110F288313BE30FD000930FE0032
:100028004530FF00A03084000A128A1503210A1205
:100038008A117030FD000830FE008030FF006D30FE
:1000480084000A128A1503210A128A11BE3084001C
:10005800DA300A128A11F8220A128A114D30840005
:100068006D300A128A11F8220A128A11FA01FB016C
:1000780083010A128A15592C831203132D08B7001D
:100088008030B7052D08AE002E07BE00AC1F4D28E6
:100098004E284F283E143E08031953285428642834
:1000A8003E0A031D5828592861280030AD00003049
:1000B800AC000030AB000030AA00AC17AD016C28D2
:1000C8000030AD000030AC000030AB000030AA00BA
:1000D80029088039B7062908AE002E07BF00A81FD7
:1000E8007628772878283F143F0803197C287D282C
:1000F8008D283F0A031D812882288A280030A900FC
:100108000030A8000030A7000030A600A817A901F9
:1001180095280030A9000030A8000030A700003062
:10012800A6002908280427042604031D9C289D28C6
:10013800B4280030AD000030AC000030AB00003017
:10014800AA008030AC047F30AD043708AD042D0818
:10015800A9002C08A8002B08A7002A08A600092A2D
:100168003E08031DB828B928C2280030A90000306D
:10017800A8000030A7000030A600092A3E08AE00FB
:10018800AF012F08B1003F082E02B000031CB103D5
:1001980030087F3EB80031080318013E003EB90020
:1001A8002D08B6002C08B5002B08B4002A08B300A7
:1001B8000030AD000030AC000030AB000030AA00C9
:1001C8000030BD000030BC000030BB000030BA0079
:1001D800BF0136293F080319F228F32813290130F3
:1001E800AE000310B30DB40DB50DB60DAE0BF5286A
:1001F8000130AE000310AA0DAB0DAC0DAD0DAE0B6A
:10020800FE28BD1F082909290A292A140130AE0031
:100218000310BA0DBB0DBC0DBD0DAE0B0C29290882
:100228003602031D212928083502031D2129270824
:100238003402031D212926083302031C24292529F9
:1002480034293D172608B3022708031C270FB402D8
:100258002808031C280FB5022908031C290FB60219
:100268000130BF071A303F02031C3B293C29EE2806
:10027800360835043404330403194329442963290F
:100288003A1463290130AE000310AA0DAB0DAC0D72
:10029800AD0DAE0B4829BD1F5229532954292A14E4
:1002A8000130AE000310BA0DBB0DBC0DBD0DAE0B79
:1002B8005629FF30B8070318B90AFF30B907AC1F31
:1002C800662967294629BF01BD1F6B296C29882922
:1002D800FF303A05AE00FF303B05AF00FF303C056C
:1002E800B0007F303D05B100310830042F042E04E2
:1002F80003197F29802983290130BF0088292A1CF6
:1003080086298729882980293F0803198C298D295E
:10031800BE290130AA07003003180130AB070030AE
:1003280003180130AC07003003180130AD072D1C4D
:100338009E299F29BE292A08AE002B08AF002C0849
:10034800B0002D08B1000130B200310DB10CB00C75
:10035800AF0CAE0CB20BA9293108AD003008AC00C7
:100368002F08AB002E08AA000130B8070318B90AF5
:100378000030B9073908803AFF0080307F02031D3A
:10038800C729FF303802031CCA29CB29D929FF30D5
:1003980083120313B8000030B9000030AD000030FC
:1003A800AC000030AB000030AA00831203133908F8
:1003B800803AFF0080307F02031DE42901303802B3
:1003C8000318E729E829F52983120313B801B901AD
:1003D8000030AD000030AC000030AB000030AA00A7
:1003E800B701831203133808BE003E1CFC29FD29FF
:1003F800FF29AC17012A7F30AC053E08AE00031078
:100408002E0CAD003708AD04AB2808008312031387
:10041800A00020080319112A122A262AF51F152AD6
:10042800162A262A7209A2007309A3007409A400D7
:100438007509A500A20A0319A30A0319A40A031936
:10044800A50A2E2A7508A5007408A4007308A3003D
:100458007208A2007508740473047204031D352A17
:10046800362A3F2A0030F5000030F4000030F3004F
:100478000030F200BF2A9630A1004D2A0130A107B2
:1004880001300310A50CA40CA30CA20CFF3E031D05
:10049800452AFE302505031D522A532A422A6D2A71
:1004A8000130A1070130A207003003180130A3076B
:1004B800003003180130A407003003180130A507E5
:1004C80001300310A50CA40CA30CA20CFF3E031DC5
:1004D800652AFF302505031D722A732A542A7F2AAC
:1004E8000130A1020130F6000310A20DA30DA40DE6
:1004F800A50DF60B782AA41B822A832A892A0230A2
:1005080021020318882A892A742A21188C2A8D2AFC
:10051800952AFF30A205FF30A3057F30A405FF30E0
:10052800A5050310A10C2108F600F701F801F9014F
:1005380018300310F60DF70DF80DF90DFF3E031DE9
:100548009D2A7608A2047708A3047808A4047908E9
:10055800A50420080319B12AB22AB72AF51FB52A1B
:10056800B62AB72AA5172508F5002408F400230899
:10057800F3002208F2000800720873040319C52A60
:10058800C62AF32A0130F600D22A01300310F20DF0
:10059800F30DFF3E031DCA2A0130F607F31FD52AC3
:1005A800D62AC92A73087502031DDC2A7208740248
:1005B800031CDF2AE02AE62A7208F4027308031CE7
:1005C800F503F50201300310F30CF20CFF3E031D96
:1005D800E72A0130F602031DF22AF32AD62A750803
:1005E800F3007408F200080064008001840A04061D
:1005F800031900340406F92A2334203454344934C6
:100608004D344534203420342034203420344534CB
:1006180056342034533450340A34003420342034CF
:1006280020342034483448343A344D344D343A3444
:1006380053345334203420342034203400344334A9
:100648006C3465346134723469346E346734203400
:100658004C346F34673473342E342E342E340034D3
:100668002034543449344D34453420342034203433
:100678002034203445345634203420345334503414
:10068800003423342034543449344D344534203430
:100698002034203420342034453456342034533424
:1006A8005034003420342034203420342034203492
:1006B8002034203420342034203420342034203492
:1006C800203420340034203445344E3454344534F6
:1006D800523449344E344734203457344134493441
:1006E8005434203420340034203445344E345434C7
:1006F800453452342034503441345334533457340D
:100708004F34523444342034003458345834583434
:100718005834583458345834583458345834583471
:1007280058345834583458340034413463346334BA
:1007380065347334733420344734723461346E341E
:100748007434653464342E3400345334653474346A
:100758002034543469346D346534203420342034E2
:1007680020342034203400345634693465347734E6
:1007780020344C346F34673420342034203420340F
:1007880020342034003443346C346534613472349A
:1007980020344C346F3467342034203420342034EF
:1007A800203400344334683461346E34673465343B
:1007B800203450346134733473342034203420347A
:1007C800003444346F3477346E346C346F346134AD
:1007D800643420344C346F3467342034203400348B
:1007E80044346F3477346E346C346F346134643429
:1007F80069346E3467342E342E342E340034533436
:10080800653463346F346E346434733420346C3438
:100818006534663474343A342034003441347634E0
:10082800613469346C34613462346C346534003456
:100838004C346F3467347334203461347234653423
:1008480000344E346F3420344C346F34673473348E
:1008580000342A34203400344334203400344734FC
:1008680031340034473432340034473433340034BC
:1008780047343434003447344E3400344F344E3423
:10088800003447345234003483120313CC0034301C
:10089800F6008330F7008030F8000A128A15F82233
:1008A8000A128A118930F6008330F7008030F80088
:1008B8000A128A15F8220A128A116A30F6000A12F8
:1008C8008A15A1210A128A116A30F9000A128A15BA
:1008D8009F240A128A113E30831203134C06031D0B
:1008E800762C772C9C2C07307A067B04031D7D2CF4
:1008F8007E2C832C0130FA000030FB00C92C7B08C9
:10090800803AFF0080307F02031D8C2C06307A026B
:1009180003188F2C902CC92C0130FA070318FB0AF6
:100928000030FB070A128A1160250A128A11C92CA5
:100938003D304C06031DA12CA22CBE2C07307A0694
:100948007B04031DA82CA92CAA2C7E2C7B08803A9A
:10095800FF0080307F02031DB32C02307A02031C93
:10096800B62CB72CC92CFF30FA070318FB0AFF3046
:10097800FB07962C3B304C06031DC32CC42CC92CFA
:100988000730FA000030FB00962C7A088312031314
:10099800CA004A07A03E840083130008F600840AB0
:1009A80000088403F700CA30F8000A128A15F822F2
:1009B8000A128A1100300A128A1563210A128A1152
:1009C800730883120313D8007208D7005708F2007F
:1009D8005808F300F401F50100300A128A110A22BE
:1009E8000A128A11750883120313AD007408AC004B
:1009F8007308AB007208AA004130A9002330A80090
:100A0800AE30A7001430A6000A128A1140200A123C
:100A18008A11831203132908C3002808C200270873
:100A2800C1002608C0000A128A156E260A128A1109
:100A3800831203134108D8004008D70064305706D2
:100A48005804031D282D292D2F2D0130D7020030E1
:100A5800031CD803D8020A30F2000030F30058080B
:100A6800F5005708F4000A128A11BC270A128A11E5
:100A78007208303E83120313E7000A30F200003098
:100A8800F3005808F5005708F4000A128A11C0222A
:100A98000A128A117208303E83120313E800E90132
:100AA8006730F6000030F700CE30F8000A128A15D9
:100AB800F8220A128A1108006430831203135306BD
:100AC8005404031D682D692D6B2DD301D401F70142
:100AD800F8010230770678040319732D742D922DCE
:100AE800053077067804031D7A2D7B2D7C2D922DF9
:100AF80077085E3E840083130008F3008312031313
:100B080053080A128A1527230A128A110130831200
:100B18000313D3070318D40A0030D4070130F707AA
:100B28000318F80A0030F807003078020830031973
:100B38007702031CA02DA12D6D2D7A0883120313B3
:100B4800A0002007A03E840083130008A100840AA7
:100B58000008A2002208FF00210884000A128A1552
:100B680000200A128A11F30053080A128A15272353
:100B78000A128A11013083120313D3070318D40A07
:100B88000030D4070130A0007A08A1002107A03E58
:100B9800840083130008A200840A0008A300200828
:100BA8002207A5002308A4000318A40AA01BA40375
:100BB8002408A6002608FF00250884000A128A15C2
:100BC80000200A128A11F30053080A128A152723F3
:100BD8000A128A11013083120313D3070318D40AA7
:100BE8000030D4076708F30053080A128A15272330
:100BF8000A128A11013083120313D3070318D40A87
:100C08000030D4076808F30053080A128A1527230E
:100C18000A128A11013083120313D3070318D40A66
:100C28000030D4070A30F2000030F3005508013EC6
:100C3800F40056080318013E003EF5000A128A1116
:100C4800C0220A128A11730883120313D60072088D
:100C5800D500080083120313B601B701B3010A12C5
:100C68008A1590200A128A11831203133308B000E0
:100C7800B1013008A0003108A1000A128A15232406
:100C88000A128A11831203133608B0003007B03EE7
:100C9800840083130008F600840A00088403F70020
:100CA8008230F8000A128A15F8220A128A11831271
:100CB80003133608B0003007B23E840083130008DF
:100CC800F600840A00088403F700C230F8000A120C
:100CD8008A15F8220A128A1101300A128A15782216
:100CE8000A128A1183120313B2003E303206031D22
:100CF8007E2E7F2E932E3303031D832E842E862E65
:100D0800B301382E3608370403198B2E8C2E382E53
:100D18000130B6020030031CB703B702382E3D304D
:100D28003206031D982E992EB12E3308031D9D2ED1
:100D38009E2EA12E0130B300382E0030370203302A
:100D4800031936020318A92EAA2E382E0130B60729
:100D58000318B70A0030B707382E37303206031D9C
:100D6800B62EB72EEA2E33083607B4003708031814
:100D7800370AB5000A128A1590200A128A118312BE
:100D8800031334083504031DCA2ECB2ED12E0A12A4
:100D98008A156B270A128A11382E34033504031D6D
:100DA800D62ED72EDD2E0A128A1582210A128A1112
:100DB800382E023034063504031DE32EE42E382E77
:100DC8000A128A154A250A128A11382E2F3032063D
:100DD800031DEF2EF02E382E0A128A1590200A12C3
:100DE8008A1108007830F6008330F7008030F80068
:100DF8000A128A15F8220A128A11831203135B0851
:100E08005C04031D082F092F142F5630F600833079
:100E1800F700C030F8000A128A15F8220A128A115F
:100E280001300A128A1578220A128A1183120313D2
:100E3800A4003E302406031D222F232F392F5B08E0
:100E48004D3E84003030831380000130DB070318E7
:100E5800DC0A0030DC075B08C03EF9002A300A12C1
:100E68008A1512210A128A11542F3D302406031DB7
:100E78003E2F3F2F542F5B084D3E840031308313A3
:100E880080000130DB070318DC0A0030DC075B0850
:100E9800C03EF9002A300A128A1512210A128A1154
:100EA8000430831203135B065C04031D5C2F5D2F63
:100EB800BB2FA501A6012508BA3E840083130008AC
:100EC800A10025084D3E84000008210603196D2F56
:100ED8006E2F6F2F7E2F0130A5070318A60A00304A
:100EE800A60700302602043003192502031C7D2FB3
:100EF8007E2F5F2F043025062604031D842F852F9F
:100F0800A22F0130DD009930F6008330F700C030A1
:100F1800F8000A128A15F8220A128A110D30831273
:100F28000313A300AF30A200B530A100A10B9A2F84
:100F3800A20B9A2FA30B9A2FA12FBB2FDD010130F3
:100F4800D9070318DA0A0030DA07DB01DC010330BD
:100F580059065A04031DB12FB22FBB2F0A128A1546
:100F6800F1240A128A1183120313D901DA01080045
:100F7800F701F801720873040319C32FC42FF92F5E
:100F88000130F600D02F01300310F20DF30DFF3EB3
:100F9800031DC82F0130F607F31FD32FD42FC72FF7
:100FA80001300310F70DF80DFF3E031DD52F730810
:100FB8007502031DE12F72087402031CE42FE52F4C
:100FC800EC2F7208F4027308031CF503F50277147A
:100FD80001300310F30CF20CFF3E031DED2F01301E
:100FE800F602031DF82FF92FD42F7808F30077089D
:040FF800F2000800FB
:10100000FF1B0A2883137F1883170008840A03191B
:10101000FF0A08007F087F398A000408840A031940
:04102000FF0A820041
:101100001E34003401348316031306083F3886006A
:101110000800831603139F17831203131F1408007C
:10112000F20101300A128A15ED230A128A1508000D
:101130000A128A15E0200A128A1583160313111465
:1011400008000A128A15E0200A128A158316031372
:1011500011150800831603138112811506308312BE
:10116000031381008B1608000A128A15A1200A12A7
:101170008A150A128A1598200A128A150800F200A8
:101180000A128A15E0200A128A15720883120313C4
:1011900093000800831603138801091189100A12AD
:1011A0008A15A5250A128A150800F2007208831212
:1011B000031399000C1EDD28DE28DA280C12080023
:1011C000831603131419E528E628E02811081F39AF
:1011D000031DEB28EC28E028080000300A128A15CD
:1011E000A2220A128A15F6007F30F6057608F3006F
:1011F00000300A128A1527210A128A1508007E0873
:101200008A007F0882000A128A15FF200A128A15B6
:101210008000840A04087D0603190034FF0A0319BC
:10122000FE0A032983120313A000F20179080A12AF
:101230008A15ED230A128A15F201F20A83120313AA
:1012400020080A128A15ED230A128A150800F400F4
:101250000A128A1598200A128A15D0300A128A15A5
:10126000BF200A128A1574080A128A15BF200A12B2
:101270008A1573080A128A15BF200A128A150A12E3
:101280008A15A1200A128A150800423484343F349A
:1012900084343334843436348434393484343C34C0
:1012A00084344534843430348434B8348334C7349B
:1012B0008334E5348334A9348334D63483343034EE
:1012C000313430343134F5007508F4000330031044
:1012D000F40DFF3E031D6729831203131F08C7394E
:1012E00074049F001F151F197629772973291E087A
:1012F000F700831603131E08F6007708F30076083C
:10130000F200080083120313D501D6012330F60042
:101310008330F7008030F8000A128A15F8220A128A
:101320008A150D3083120313A200AF30A100B5302F
:10133000A000A00B9929A10B9929A20B9929A029FA
:1013400008007608840002300A128A15A2220A12C6
:101350008A1583138000760A840001300A128A15E8
:10136000A2220A128A15831380007608023E8400A6
:1013700000300A128A15A2220A128A1583138000ED
:101380000800F2000A128A15E0200A128A15831654
:10139000031391150A128A15E0200A128A15831286
:1013A00003131308F3007203031DD729D829DC297E
:1013B000831603139116DF29831603139112111656
:1013C0007308080083120313A001A1012008CF3E77
:1013D0008400200878070A128A15CD220A128A157D
:1013E00083138000013083120313A0070318A10A9E
:1013F0000030A107003021020A3003192002031C2B
:10140000022A032AE629CF300800F601F701721CF0
:101410000A2A0B2A112A7408F6070318F70A750816
:10142000F70701300310F40DF50DFF3E031D122ADE
:1014300001300310F30CF20CFF3E031D192A720851
:101440007304031D242A252A072A7708F300760847
:10145000F20008003F2A7408FF00730884000A1293
:101460008A1500200A128A150A128A15D5200A1236
:101470008A150130F3070318F40A0030F4077408E2
:1014800083120313FF00730884000A128A150020D8
:101490000A128A15003A031D4E2A4F2A2B2A0800E9
:1014A0000B1D532A542A712A831203130108083E84
:1014B00081000130D1070318D20A0030D207203052
:1014C00051064E3003195206031D672A682A702AF6
:1014D000D101D2010130ED020030031CEE03EE0217
:1014E0000B1171088A00700E8300FE0E7E0E09003B
:1014F000F3007308031D7D2A7E2A832A83120313B7
:1015000006083F39A12A3F30831203130605F20073
:101510003F30720603198D2A8E2A952A6F08031907
:10152000922A932A952AEF017E2A3F300605F2007F
:101530003F307206031D9D2A9E2AA02A0130EF002B
:101540003F300800F4000A128A1598200A128A1502
:10155000D0300A128A15BF200A128A1574080A129E
:101560008A15BF200A128A150A128A15B4200A1297
:101570008A15D1300A128A15BF200A128A15003046
:101580000A128A15C1210A128A15F5000A128A1553
:10159000A1200A128A1575080800F4000A128A159B
:1015A00098200A128A15A0300A128A15BF200A1242
:1015B0008A1574080A128A15BF200A128A150A129F
:1015C0008A15B4200A128A15A1300A128A15BF2082
:1015D0000A128A1500300A128A15C1210A128A15C8
:1015E000F5000A128A15A1200A128A15750808004A
:1015F000F20178080A128A15ED230A128A15162BB1
:10160000F201F20A7708FF00760884000A128A15B0
:1016100000200A128A150A128A15ED230A128A1569
:101620000130F6070318F70A0030F707770883122E
:101630000313FF00760884000A128A1500200A129C
:101640008A15003A031D252B262B002B0800F400D9
:101650000A128A1598200A128A15A0300A128A15D1
:10166000BF200A128A1574080A128A15BF200A12AE
:101670008A1573080A128A15BF200A128A150A12DF
:101680008A15A1200A128A15B830F5000B30F60031
:101690000130F5020030031CF603F602750A031D43
:1016A000552B760A031D552B562B482B0800831209
:1016B0000313981718162608AA002708AB00280855
:1016C000AC002908AD0004300310AA0DAB0DAC0D21
:1016D000AD0DFF3E031D642B2D08F5002C08F40012
:1016E0002B08F3002A08F2000130F9003130F8002D
:1016F0002D30F7000030F6000A128A1508260A126B
:101700008A157208FF3E831603139900080083129E
:10171000031394152608AA002708AB002808AC007C
:101720002908AD0002300310AA0DAB0DAC0DAD0DB4
:10173000FF3E031D932B2D08F5002C08F4002B0809
:10174000F3002A08F2000130F9003130F8002D30A2
:10175000F7000030F6000A128A1508260A128A15C8
:101760007208FF3E8316031393008312031394162B
:1017700008000A128A1589200A128A150A128A1587
:10178000CA200A128A150A128A1583200A128A159B
:10179000003083120313A9000130A8008630A7008F
:1017A000A030A6000A128A1587230A128A150A1287
:1017B0008A15ED200A128A15003083120313A9003E
:1017C0000030A8002530A7008030A6000A128A1534
:1017D00057230A128A158B170800F5007218F12B8F
:1017E000F52B831203130915F82B83120313091128
:1017F0007508F03988008914A630F300F30BFE2B2E
:10180000000083120313891075080F39F3000330A9
:101810000310F30DFF3E031D082C0310730D880009
:101820008914A630F300F30B132C0000831203136A
:1018300089101B30F4009E30F300F30B1D2CF40BC9
:101840001D2C000008008312031320082104031D2F
:101850002A2C2B2C422C2D30F6008430F7008030BF
:10186000F8000A128A15F8220A128A156430F60066
:101870008330F700C030F8000A128A15F8220A12E5
:101880008A15582C2D30F6008430F700C030F8004F
:101890000A128A15F8220A128A156430F60083307B
:1018A000F7008030F8000A128A15F8220A128A1509
:1018B00008000A128A15B9230A128A15831603131F
:1018C000DB0101300A128A1578220A128A15831662
:1018D0000313DA0037305A06031D6F2C702C722C5C
:1018E0000130DB005B08031D762C772C7E2C5A0818
:1018F0000A128A1148240A128A15612C5B03031DFF
:10190000822C832C612C831203135D03031D892C0D
:101910008A2C962C0A128A112E260A128A158316F0
:101920000313DB0183120313DD01612C0A128A11F8
:10193000F6260A128A15612C0A128A110C287908D7
:1019400084008313000883120313A00004300310E3
:10195000A00CFF3E031DA72C20080339303EDE00FB
:101960007908840000080F39303EDF003A30E0008B
:10197000790A84000008A00004300310A00CFF3E88
:10198000031DBD2C20080739303EE100790A840090
:1019900000080F39303EE2003A30E3007908023E99
:1019A00084000008A00004300310A00CFF3E031DBB
:1019B000D42C20080739303EE4007908023E840028
:1019C00000080F39303EE500E6015E30F6000030D9
:1019D000F700C030F8000A128A15F8220A128A1598
:1019E00008000A128A15AA200A128A153D2D6730AE
:1019F000F6008330F7008030F8000A128A15F822CA
:101A00000A128A150330F6008430F700C030F8005F
:101A10000A128A15F8220A128A15CE30F9000A3005
:101A2000F2000030F300831203136E08F5006D0816
:101A3000F4000A128A11BC270A128A157208303E75
:101A40000A128A1512210A128A15CF30F9000A30BB
:101A5000F2000030F300831203136E08F5006D08E6
:101A6000F4000A128A11C0220A128A157208303E46
:101A70000A128A1512210A128A15831203136D089D
:101A80006E04031D442D452DF72C1E30ED00003053
:101A9000EE0008001C30F6008430F7008030F800BB
:101AA0000A128A15F8220A128A15F430F6008330D9
:101AB000F700C030F8000A128A15F8220A128A15B7
:101AC0000030F3008330F4000A128A152A220A1229
:101AD0008A1583120313AD01AE019A2D2D080A1247
:101AE0008A15E4260A128A15BE30F3000030F4008D
:101AF0000A128A152A220A128A150A300A128A152F
:101B0000D5200A128A150D3083120313AC00AF30B2
:101B1000AB00B530AA00AA0B8B2DAB0B8B2DAC0BF9
:101B20008B2D922D013083120313AD070318AE0ADB
:101B30000030AE0756082E02031DA02D55082D02B9
:101B4000031CA32DA42D6E2D0800C330F700CD304B
:101B5000F600F60BA92DF70BA92DF20133300A126E
:101B60008A15ED230A128A151B30F7009E30F60005
:101B7000F60BB82DF70BB82D0000F20133300A1226
:101B80008A15ED230A128A15A630F600F60BC62D2B
:101B90000000F20133300A128A15ED230A128A1569
:101BA000D12DD22D0000F20102300A128A15ED2348
:101BB0000A128A15A630F600F60BDC2D0000F201A1
:101BC00028300A128A15ED230A128A15A630F6006B
:101BD000F60BE82D0000F20101300A128A15ED2300
:101BE0000A128A150430F7003D30F600F60BF62D88
:101BF000F70BF62DFB2DF2010C300A128A15ED239E
:101C00000A128A15A630F600F60B042E0000080012
:101C1000003083120313A4000030A3000030A200A0
:101C20000030A10075087404730472040319192E9E
:101C30001A2E652E0130A500282E0130A0000310B9
:101C4000F20DF30DF40DF50DA00B1F2E0130A507BD
:101C5000F51F2B2E2C2E1D2E0130A0000310A10DE0
:101C6000A20DA30DA40DA00B2E2E75087902031D45
:101C7000432E74087802031D432E73087702031D58
:101C8000432E72087602031C462E472E562E7208EB
:101C9000F6027308031C730FF7027408031C740F19
:101CA000F8027508031C750FF902211401300310A6
:101CB000F50CF40CF30CF20CFF3E031D572E013013
:101CC000A502031D642E652E2C2E2408F500230882
:101CD000F4002208F3002108F20008000310831228
:101CE0000313420D430DC9004908031D782E792EB8
:101CF000822E0030C3000030C2000030C10000302E
:101D0000C000E32E4008C4004108C5004208C600D8
:101D10004308C7001F300310C70CC60CC50CC40C09
:101D2000FF3E031D8B2E4408C800C217FF30C005BC
:101D3000FF30C105FF30C2050030C3059630C9022F
:101D4000C91FA32EA42EBC2E4908803A973E031823
:101D5000AA2EAB2EAC2E792E01300310C30CC20C70
:101D6000C10CC00CFF3E031DAD2E0130C907031D81
:101D7000BA2EBB2EAC2ED32E20304902031CC12E0E
:101D8000C22ECE2E792E0130C4000310C00DC10D1D
:101D9000C20DC30DC40BC52E0130C9024908031D75
:101DA000D22ED32EC32E48080319D72ED82EE32EB9
:101DB000C009C109C209C309C00A0319C10A03192C
:101DC000C20A0319C30A080083120313A7002708D5
:101DD000A200A3012208F2002308F3000A30F40055
:101DE0000030F5000A128A1505220A128A157308B6
:101DF000F9007208F8000A128A15E2210A128A15FF
:101E000083120313A400A501A601A801A9012808B3
:101E10002904031D0C2F0D2F152F2808BE3E84000A
:101E20002708303E83138000582F043028062904E9
:101E300003191B2F1C2F232F073028062904031DED
:101E4000222F232F2A2F2808BE3E84003A308313E6
:101E50008000582F2803290403192F2F302F3E2FDD
:101E60000A30280629040319362F372F3E2F0D304C
:101E700028062904031D3D2F3E2F452F2808BE3E6E
:101E80008400203083138000582F25082407A200E7
:101E90002208840083130008FF002808BE3E840047
:101EA0007F0880000130A5070318A60A0030A607A6
:101EB0000130A8070318A90A0030A9070030290239
:101EC000103003192802031C662F672F072F831673
:101ED0000313CE01080083120313AE01AF010030DB
:101EE0000A128A15E4260A128A158312031355086A
:101EF0005604031D7C2F7D2F942F2530F60084304F
:101F0000F7008030F8000A128A15F8220A128A15A2
:101F10001230F6008430F700C030F8000A128A153B
:101F2000F8220A128A15AA2F4530F6008330F700EE
:101F30008030F8000A128A15F8220A128A15BE307B
:101F4000F6000030F700C030F8000A128A15F822B7
:101F50000A128A1501300A128A1578220A128A1585
:101F600083120313AA00AB012A08AC002B08AD00B2
:101F70003E302C062D04031DBE2FBF2FD22F2E085E
:101F80002F040319C42FC52FCB2F0130AE02003010
:101F9000031CAF03AF022E080A128A15E4260A12A8
:101FA0008A15752F3D302C062D04031DD82FD92FEF
:101FB000F82F5508FF3EAA0056080318013EFF3EC1
:101FC000AB002B082F02031DE72F2A082E0203184F
:101FD000EA2FEB2FF12F0130AE070318AF0A0030C4
:101FE000AF072E080A128A15E4260A128A15752FE1
:101FF0002F302C062D04031DFE2FFF2F752F0800F8
:08400000FF3FFF3FFF3FFF3FC0
:02400E00FB3F76
:00000001FF
