:060000000A128A110C280F
:10000800FE00030EF0000A08F1000A128A156328A0
:100018000A128A110F288313BE30FD001730FE0024
:100028004030FF00A03084000A128A1509200A1205
:100038008A117030FD000730FE00FD30FF006D3082
:1000480084000A128A1509200A128A11BE30840017
:10005800DA300A168A11B3260A128A114D30840042
:100068006D300A168A11B3260A128A11FA01FB01A9
:1000780083010A128A15DD2A831203132D08B7009B
:100088008030B7052D08AE002E07BE00AC1F4D28E6
:100098004E284F283E143E08031953285428642834
:1000A8003E0A031D5828592861280030AD00003049
:1000B800AC000030AB000030AA00AC17AD016C28D2
:1000C8000030AD000030AC000030AB000030AA00BA
:1000D80029088039B7062908AE002E07BF00A81FD7
:1000E8007628772878283F143F0803197C287D282C
:1000F8008D283F0A031D812882288A280030A900FC
:100108000030A8000030A7000030A600A817A901F9
:1001180095280030A9000030A8000030A700003062
:10012800A6002908280427042604031D9C289D28C6
:10013800B4280030AD000030AC000030AB00003017
:10014800AA008030AC047F30AD043708AD042D0818
:10015800A9002C08A8002B08A7002A08A600092A2D
:100168003E08031DB828B928C2280030A90000306D
:10017800A8000030A7000030A600092A3E08AE00FB
:10018800AF012F08B1003F082E02B000031CB103D5
:1001980030087F3EB80031080318013E003EB90020
:1001A8002D08B6002C08B5002B08B4002A08B300A7
:1001B8000030AD000030AC000030AB000030AA00C9
:1001C8000030BD000030BC000030BB000030BA0079
:1001D800BF0136293F080319F228F32813290130F3
:1001E800AE000310B30DB40DB50DB60DAE0BF5286A
:1001F8000130AE000310AA0DAB0DAC0DAD0DAE0B6A
:10020800FE28BD1F082909290A292A140130AE0031
:100218000310BA0DBB0DBC0DBD0DAE0B0C29290882
:100228003602031D212928083502031D2129270824
:100238003402031D212926083302031C24292529F9
:1002480034293D172608B3022708031C270FB402D8
:100258002808031C280FB5022908031C290FB60219
:100268000130BF071A303F02031C3B293C29EE2806
:10027800360835043404330403194329442963290F
:100288003A1463290130AE000310AA0DAB0DAC0D72
:10029800AD0DAE0B4829BD1F5229532954292A14E4
:1002A8000130AE000310BA0DBB0DBC0DBD0DAE0B79
:1002B8005629FF30B8070318B90AFF30B907AC1F31
:1002C800662967294629BF01BD1F6B296C29882922
:1002D800FF303A05AE00FF303B05AF00FF303C056C
:1002E800B0007F303D05B100310830042F042E04E2
:1002F80003197F29802983290130BF0088292A1CF6
:1003080086298729882980293F0803198C298D295E
:10031800BE290130AA07003003180130AB070030AE
:1003280003180130AC07003003180130AD072D1C4D
:100338009E299F29BE292A08AE002B08AF002C0849
:10034800B0002D08B1000130B200310DB10CB00C75
:10035800AF0CAE0CB20BA9293108AD003008AC00C7
:100368002F08AB002E08AA000130B8070318B90AF5
:100378000030B9073908803AFF0080307F02031D3A
:10038800C729FF303802031CCA29CB29D929FF30D5
:1003980083120313B8000030B9000030AD000030FC
:1003A800AC000030AB000030AA00831203133908F8
:1003B800803AFF0080307F02031DE42901303802B3
:1003C8000318E729E829F52983120313B801B901AD
:1003D8000030AD000030AC000030AB000030AA00A7
:1003E800B701831203133808BE003E1CFC29FD29FF
:1003F800FF29AC17012A7F30AC053E08AE00031078
:100408002E0CAD003708AD04AB2808008312031387
:100418005E08A200A3012208F2002308F3000A30B4
:10042800F4000030F5000A128A1518200A128A1101
:10043800831203135F087207A40000300318013009
:100448007307A5002408F03EA60025080318013EFE
:10045800FD3EA7006108A200A3012208F2002308BC
:10046800F3000A30F4000030F5000A128A1518204B
:100478000A128A118312031362087207A40000305B
:10048800031801307307A5002408F03EA8002508CA
:100498000318013EFD3EA9006408A200A30122083A
:1004A800F2002308F3000A30F4000030F5000A12C5
:1004B8008A1518200A128A11831203136508720715
:1004C800A4000030031801307307A5002408F03E8B
:1004D800AA0025080318013EFD3EAB00AD01AE01A0
:1004E8001230F6008430F7008030F8000A128A15BE
:1004F8000B210A128A11C430F9000A30F2000030C8
:10050800F300831203132708F5002608F4000A12E3
:100518008A11BE230A128A117208303E0A128A1101
:10052800E8270A128A11C530F9000A30F2000030B3
:10053800F300831203132708F5002608F4000A12B3
:100548008A156C220A128A117208303E0A128A1120
:10055800E8270A128A11C630F9003A300A128A11BD
:10056800E8270A128A11C730F9000A30F200003071
:10057800F300831203132908F5002808F4000A126F
:100588008A11BE230A128A117208303E0A128A1191
:10059800E8270A128A11C830F9000A30F200003040
:1005A800F300831203132908F5002808F4000A123F
:1005B8008A156C220A128A117208303E0A128A11B0
:1005C800E8270A128A11C930F9003A300A128A114A
:1005D800E8270A128A11CA30F9000A30F2000030FE
:1005E800F300831203132B08F5002A08F4000A12FB
:1005F8008A11BE230A128A117208303E0A128A1121
:10060800E8270A128A11CB30F9000A30F2000030CC
:10061800F300831203132B08F5002A08F4000A12CA
:100628008A156C220A128A117208303E0A128A113F
:10063800E8270A128A11831203132E08A1002D0835
:10064800A0000A128A15A4220A128A1101300A127D
:100658008A158B200A128A1183120313AC003E30CC
:100668002C06031D382B392B922B2D082E04031D25
:100678003E2B3F2B562B1830F2000030F300260893
:10068800013EF40027080318013E003EF5000A1257
:100698008A156C220A128A11730883120313A700A1
:1006A8007208A6002D032E04031D5B2B5C2B732BF5
:1006B8003C30F2000030F3002808013EF40029081D
:1006C8000318013E003EF5000A128A156C220A1230
:1006D8008A11730883120313A9007208A800023054
:1006E8002D062E04031D792B7A2B7F2A3C30F2002D
:1006F8000030F3002A08013EF4002B080318013EDD
:10070800003EF5000A128A156C220A128A11730833
:1007180083120313AB007208AA007F2A3D302C060F
:10072800031D972B982BB02B0330F2000030F300F9
:100738002D08013EF4002E080318013E003EF50086
:100748000A128A156C220A128A117308831203137B
:10075800AE007208AD007F2A37302C06031DB52B7A
:10076800B62BB72B7F2A2F302C06031DBC2BBD2B95
:100778007F2A0800F701F801720873040319C52BD2
:10078800C62BFB2B0130F600D22B01300310F20DE3
:10079800F30DFF3E031DCA2B0130F607F31FD52BBF
:1007A800D62BC92B01300310F70DF80DFF3E031DA2
:1007B800D72B73087502031DE32B72087402031C00
:1007C800E62BE72BEE2B7208F4027308031CF503E3
:1007D800F502771401300310F30CF20CFF3E031DF1
:1007E800EF2B0130F602031DFA2BFB2BD62B7808D2
:1007F800F3007708F20008002334203454344934D5
:100808004D344534203420342034203420344534C9
:1008180056342034533450340A34003420342034CD
:1008280020342034483448343A344D344D343A3442
:1008380053345334203420342034203400344334A7
:100848006C3465346134723469346E3467342034FE
:100858004C346F34673473342E342E342E340034D1
:100868002034543449344D34453420342034203431
:100878002034203445345634203420345334503412
:10088800003423342034543449344D34453420342E
:100898002034203420342034453456342034533422
:1008A8005034003420342034203420342034203490
:1008B8002034203420342034203420342034203490
:1008C800203420340034203445344E3454344534F4
:1008D800523449344E34473420345734413449343F
:1008E8005434203420340034203445344E345434C5
:1008F800453452342034503441345334533457340B
:100908004F34523444342034003441346334633433
:1009180065347334733420344734723461346E343C
:100928007434653464342E34003453346534743488
:100938002034543469346D34653420342034203400
:100948002034203420340034563469346534773404
:1009580020344C346F34673420342034203420342D
:1009680020342034003443346C34653461347234B8
:1009780020344C346F34673420342034203420340D
:10098800203400344334683461346E346734653459
:100998002034503461347334733420342034203498
:1009A800003444346F3477346E346C346F346134CB
:1009B800643420344C346F346734203420340034A9
:1009C80044346F3477346E346C346F346134643447
:1009D80069346E3467342E342E342E340034533454
:1009E800653463346F346E346434733420346C3457
:1009F8006534663474343A342034003441347634FF
:100A0800613469346C34613462346C346534003474
:100A18004C346F3467347334203461347234653441
:100A280000344E346F3420344C346F3467347334AC
:100A380000342A342034003443342034003447341A
:100A480031340034473432340034473433340034DA
:100A580047343434003447344E3400344F344E3441
:100A6800003447345234003483120313CC0034303A
:100A7800F6008430F7008030F8000A128A150B213E
:100A88000A128A116A30F6000A168A119C270A127D
:100A98008A116A30F9000A128A1523230A128A1168
:100AA8003E30831203134C06031D5B2D5C2D812DF4
:100AB80007307A067B04031D622D632D682D0130F3
:100AC800FA000030FB00AE2D7B08803AFF00803032
:100AD8007F02031D712D06307A020318742D752DBF
:100AE800AE2D0130FA070318FB0A0030FB070A1283
:100AF8008A111A270A128A11AE2D3D304C06031DA1
:100B0800862D872DA32D07307A067B04031D8D2D96
:100B18008E2D8F2D632D7B08803AFF0080307F0259
:100B2800031D982D02307A02031C9B2D9C2DAE2D9F
:100B3800FF30FA070318FB0AFF30FB077B2D3B3019
:100B48004C06031DA82DA92DAE2D0730FA00003044
:100B5800FB007B2D7A0883120313CA004A07A03EC4
:100B6800840083130008F600840A00088403F70051
:100B7800CA30F8000A128A150B210A128A110030AD
:100B88000A168A115E270A128A1173088312031340
:100B9800D8007208D7005708F2005808F300F4018B
:100BA800F50100300A128A1584260A128A1175087E
:100BB80083120313AD007408AC007308AB0072080D
:100BC800AA004130A9002330A800AE30A700143095
:100BD800A6000A128A1140200A128A1183120313EE
:100BE8002908C3002808C2002708C1002608C00039
:100BF8000A128A15F2240A128A1183120313410871
:100C0800D8004008D700643057065804031D0D2E3D
:100C18000E2E142E0130D7020030031CD803D80240
:100C28000A30F2000030F3005808F5005708F400C5
:100C38000A128A11BE230A128A117208303E8312E0
:100C48000313E7000A30F2000030F3005808F500FB
:100C58005708F4000A128A156C220A128A117208BF
:100C6800303E83120313E800E9016730F6000030D4
:100C7800F700CE30F8000A128A150B210A128A11E1
:100C8800080083120313B601B701B3010A168A11CB
:100C9800AB260A128A11831203133308B000B1017C
:100CA8003008A0003108A1000A128A1536220A125B
:100CB8008A11831203133608B0003007B03E84004F
:100CC80083130008F600840A00088403F7008230C2
:100CD800F8000A128A150B210A128A1183120313CB
:100CE8003608B0003007B23E840083130008F600CF
:100CF800840A00088403F700C230F8000A128A1533
:100D08000B210A128A1101300A128A158B200A1245
:100D18008A1183120313B2003E303206031D952E4A
:100D2800962EAA2E3303031D9A2E9B2E9D2EB301B9
:100D38004F2E360837040319A22EA32E4F2E01304A
:100D4800B6020030031CB703B7024F2E3D303206FF
:100D5800031DAF2EB02EC82E3308031DB42EB52E9A
:100D6800B82E0130B3004F2E00303702033003197C
:100D780036020318C02EC12E4F2E0130B6070318B5
:100D8800B70A0030B7074F2E37303206031DCD2E75
:100D9800CE2E0E2F33083607B40037080318370A4B
:100DA800B5000A168A11AB260A128A118312031398
:100DB80034083504031DE12EE22EE82E0A128A15A6
:100DC800EF250A128A114F2E34033504031DED2E28
:100DD800EE2EF42E0A168A117D270A128A114F2E3A
:100DE800023034063504031DFA2EFB2E012F0A1299
:100DF8008A15CE230A128A114F2E03303406350481
:100E0800031D072F082F4F2E0A128A110A220A12D1
:100E18008A114F2E2F303206031D132F142F4F2EF9
:100E28000A168A11AB260A128A1108006430831246
:100E3800031353065404031D222F232F252FD301F8
:100E4800D401F701F80102307706780403192D2F31
:100E58002E2F4C2F053077067804031D342F352F9D
:100E6800362F4C2F77085E3E840083130008F3006A
:100E78008312031353080A128A153A210A128A1197
:100E8800013083120313D3070318D40A0030D407A0
:100E98000130F7070318F80A0030F8070030780225
:100EA800083003197702031C5A2F5B2F272F7A0863
:100EB80083120313A0002007A03E840083130008B8
:100EC800A100840A0008A2002208FF00210884006B
:100ED8000A168A1100200A128A11F30053080A120E
:100EE8008A153A210A128A11013083120313D30793
:100EF8000318D40A0030D4070130A0007A08A100F2
:100F08002107A03E840083130008A200840A000879
:100F1800A30020082207A5002308A4000318A40A98
:100F2800A01BA4032408A6002608FF0025088400A7
:100F38000A168A1100200A128A11F30053080A12AD
:100F48008A153A210A128A11013083120313D30732
:100F58000318D40A0030D4076708F30053080A12AC
:100F68008A153A210A128A11013083120313D30712
:100F78000318D40A0030D4076808F30053080A128B
:100F88008A153A210A128A11013083120313D307F2
:100F98000318D40A0030D4070A30F2000030F300F6
:100FA8005508013EF40056080318013E003EF500BE
:100FB8000A128A156C220A128A1173088312031303
:100FC800D6007208D500080083120313A000F201AE
:100FD80079080A128A1500220A128A11F201F20A05
:100FE8008312031320080A128A1500220A128A1192
:080FF80008001E34003401342E
:10100A007E088A007F0882000A128A1505200A12C1
:10101A008A158000840A04087D0603190034FF0A31
:10102A000319FE0A0928F601F701721C1D281E2859
:10103A0024287408F6070318F70A7508F707013019
:10104A000310F40DF50DFF3E031D25280130031092
:10105A00F30CF20CFF3E031D2C2872087304031DC7
:10106A00372838281A287708F3007608F20008008B
:10107A0052287408FF00730884000A168A11002097
:10108A000A128A150A168A11F8260A128A150130D6
:10109A00F3070318F40A0030F407740883120313E1
:1010AA00FF00730884000A168A1100200A128A15A2
:1010BA00003A031D612862283E2808000B1D662895
:1010CA0067288428831203130108083E810001302F
:1010DA00D1070318D20A0030D207203051064E3009
:1010EA0003195206031D7A287B288328D101D201CD
:1010FA000130ED020030031CEE03EE020B11710801
:10110A008A00700E8300FE0E7E0E0900F30073083B
:10111A00031D9028912896288312031306083F3945
:10112A00B4283F30831203130605F2003F307206DB
:10113A000319A028A128A8286F080319A528A628FA
:10114A00A828EF0191283F300605F2003F307206C9
:10115A00031DB028B128B3280130EF003F30080042
:10116A00F4000A168A11BB260A128A15D0300A160A
:10117A008A11E2260A128A1574080A168A11E226C8
:10118A000A128A150A168A11D7260A128A15D13026
:10119A000A168A11E2260A128A1500300A168A11DC
:1011AA00BC270A128A15F5000A168A11C4260A12E1
:1011BA008A1575080800F4000A168A11BB260A1255
:1011CA008A15A0300A168A11E2260A128A157408AC
:1011DA000A168A11E2260A128A150A168A11D726CF
:1011EA000A128A15A1300A168A11E2260A128A15EB
:1011FA0000300A168A11BC270A128A15F5000A1647
:10120A008A11C4260A128A1575080800F20178089C
:10121A000A128A1500220A128A152929F201F20AEB
:10122A007708FF00760884000A168A1100200A123D
:10123A008A150A128A1500220A128A150130F6073F
:10124A000318F70A0030F707770883120313FF0021
:10125A00760884000A168A1100200A128A15003AB2
:10126A00031D3829392913290800F4000A168A119E
:10127A00BB260A128A15A0300A168A11E2260A1219
:10128A008A1574080A168A11E2260A128A15730840
:10129A000A168A11E2260A128A150A168A11C42621
:1012AA000A128A15B830F5000B30F6000130F50243
:1012BA000030031CF603F602750A031D6829760A34
:1012CA00031D682969295B290800831203139817EB
:1012DA0018162608AA002708AB002808AC00290817
:1012EA00AD0004300310AA0DAB0DAC0DAD0DFF3EE1
:1012FA00031D77292D08F5002C08F4002B08F300AC
:10130A002A08F2000130F9003130F8002D30F700D8
:10131A000030F6000A128A158C240A128A157208FD
:10132A00FF3E8316031399000800831203139415D2
:10133A002608AA002708AB002808AC002908AD0037
:10134A0002300310AA0DAB0DAC0DAD0DFF3E031D0F
:10135A00A6292D08F5002C08F4002B08F3002A080A
:10136A00F2000130F9003130F8002D30F70000307A
:10137A00F6000A128A158C240A128A157208FF3E90
:10138A0083160313930083120313941608000A1694
:10139A008A11A4260A128A150A168A11ED260A1239
:1013AA008A150A168A119E260A128A150030831295
:1013BA000313A9000130A8008630A700A030A600B8
:1013CA000A128A159A210A128A150A168A111027F0
:1013DA000A128A15003083120313A9000030A800EC
:1013EA002530A7008030A6000A128A156A210A123F
:1013FA008A158B170800F5007218042A082A831226
:10140A00031309150B2A8312031309117508F039FE
:10141A0088008914A630F300F30B112A0000831206
:10142A000313891075080F39F30003300310F30D05
:10143A00FF3E031D1B2A0310730D88008914A63072
:10144A00F300F30B262A00008312031389101B30C2
:10145A00F4009E30F300F30B302AF40B302A00001C
:10146A0008008312031320082104031D3D2A3E2A83
:10147A00552A1D30F6008530F7008030F8000A1230
:10148A008A150B210A128A156430F6008430F70097
:10149A00C030F8000A128A150B210A128A156B2A23
:1014AA001D30F6008530F700C030F8000A128A15A0
:1014BA000B210A128A156430F6008430F700803056
:1014CA00F8000A128A150B210A128A1508007208F6
:1014DA0073040319712A722A9F2A0130F6007E2AA0
:1014EA0001300310F20DF30DFF3E031D762A013081
:1014FA00F607F31F812A822A752A73087502031DCB
:10150A00882A72087402031C8B2A8C2A922A72086F
:10151A00F4027308031CF503F50201300310F30CFF
:10152A00F20CFF3E031D932A0130F602031D9E2A88
:10153A009F2A822A7508F3007408F20008008312B1
:10154A00031320082104031DAB2AAC2AB82A6430ED
:10155A00F6008430F700C430F8000A128A150B210D
:10156A000A128A15DC2A20032104031DBD2ABE2A79
:10157A00CA2A6430F6008430F700C730F8000A122D
:10158A008A150B210A128A15DC2A02302006210448
:10159A00031DD02AD12ADC2A6430F6008430F700F1
:1015AA00CA30F8000A128A150B210A128A15080095
:1015BA000A128A15CC210A128A1583160313DB0133
:1015CA0001300A128A158B200A128A158316031310
:1015DA00DA0037305A06031DF32AF42AF62A0130B4
:1015EA00DB005B08031DFA2AFB2A022B5A080A129F
:1015FA008A1138250A128A15E52A5B03031D062B70
:10160A00072BE52A831203135D03031D0D2B0E2BF3
:10161A001A2B0A128A1145260A128A1583160313EF
:10162A00DB0183120313DD01E52A0A128A153A2720
:10163A000A128A15E52A0A128A110C2879088400E6
:10164A008313000883120313A00004300310A00CB4
:10165A00FF3E031D2B2B20080339303EDE0079089C
:10166A00840000080F39303EDF003A30E000790A82
:10167A0084000008A00004300310A00CFF3E031DE4
:10168A00412B20080739303EE100790A840000081E
:10169A000F39303EE2003A30E3007908023E840016
:1016AA000008A00004300310A00CFF3E031D582BB5
:1016BA0020080739303EE4007908023E8400000819
:1016CA000F39303EE500E6015E30F6000030F700E3
:1016DA00C030F8000A128A150B210A128A1508006E
:1016EA000A168A11CD260A128A15C12B6730F6000E
:1016FA008430F7008030F8000A128A150B210A128A
:10170A008A15F330F6008430F700C030F8000A1268
:10171A008A150B210A128A15CE30F9000A30F20016
:10172A000030F300831203136E08F5006D08F4000D
:10173A000A128A11BE230A128A157208303E0A1248
:10174A008A11E8270A128A15CF30F9000A30F20006
:10175A000030F300831203136E08F5006D08F400DD
:10176A000A128A156C220A128A157208303E0A1267
:10177A008A11E8270A128A15831203136D086E0468
:10178A00031DC82BC92B7B2B1E30ED000030EE0049
:10179A0008000C30F6008530F7008030F8000A1295
:1017AA008A150B210A128A15E430F6008430F700F4
:1017BA00C030F8000A128A150B210A128A15003065
:1017CA00F3008430F4000A128A153D200A128A15A1
:1017DA0083120313AD01AE011E2C2D080A128A15BD
:1017EA0068250A128A15BE30F3000030F4000A1286
:1017FA008A153D200A128A150A300A168A11F82615
:10180A000A128A150D3083120313AC00AF30AB00F5
:10181A00B530AA00AA0B0F2CAB0B0F2CAC0B0F2C5C
:10182A00162C013083120313AD070318AE0A0030D9
:10183A00AE0756082E02031D242C55082D02031C40
:10184A00272C282CF22B0800C330F700CD30F600E5
:10185A00F60B2D2CF70B2D2CF20133300A128A15B8
:10186A0000220A128A151B30F7009E30F600F60B8A
:10187A003C2CF70B3C2C0000F20133300A128A157B
:10188A0000220A128A15A630F600F60B4A2C00002E
:10189A00F20133300A128A1500220A128A15552CCF
:1018AA00562C0000F20102300A128A1500220A128E
:1018BA008A15A630F600F60B602C0000F2012830DB
:1018CA000A128A1500220A128A15A630F600F60BA9
:1018DA006C2C0000F20101300A128A1500220A1249
:1018EA008A150430F7003D30F600F60B7A2CF70B18
:1018FA007A2C7F2CF2010C300A128A1500220A1265
:10190A008A15A630F600F60B882C00000800003075
:10191A0083120313A4000030A3000030A200003099
:10192A00A100750874047304720403199D2C9E2C7B
:10193A00E92C0130A500AC2C0130A0000310F20DF7
:10194A00F30DF40DF50DA00BA32C0130A507F51F1F
:10195A00AF2CB02CA12C0130A0000310A10DA20DB8
:10196A00A30DA40DA00BB22C75087902031DC72C78
:10197A0074087802031DC72C73087702031DC72C4D
:10198A0072087602031CCA2CCB2CDA2C7208F602D7
:10199A007308031C730FF7027408031C740FF80210
:1019AA007508031C750FF902211401300310F50C98
:1019BA00F40CF30CF20CFF3E031DDB2C0130A502E4
:1019CA00031DE82CE92CB02C2408F5002308F400A8
:1019DA002208F3002108F2000800031083120313FF
:1019EA00420D430DC9004908031DFC2CFD2C062D90
:1019FA000030C3000030C2000030C1000030C00017
:101A0A00672D4008C4004108C5004208C6004308C3
:101A1A00C7001F300310C70CC60CC50CC40CFF3E10
:101A2A00031D0F2D4408C800C217FF30C005FF3040
:101A3A00C105FF30C2050030C3059630C902C91F6F
:101A4A00272D282D402D4908803A973E03182E2D20
:101A5A002F2D302DFD2C01300310C30CC20CC10CEC
:101A6A00C00CFF3E031D312D0130C907031D3E2D59
:101A7A003F2D302D572D20304902031C452D462D70
:101A8A00522DFD2C0130C4000310C00DC10DC20D32
:101A9A00C30DC40B492D0130C9024908031D562D37
:101AAA00572D472D480803195B2D5C2D672DC0095A
:101ABA00C109C209C309C00A0319C10A0319C20A22
:101ACA000319C30A080083120313A7002708A200F8
:101ADA00A3012208F2002308F3000A30F4000030C0
:101AEA00F5000A128A1518200A128A157308F900D5
:101AFA007208F8000A168A11DD270A128A1583125B
:101B0A000313A400A501A601A801A9012808290414
:101B1A00031D902D912D992D2808BE3E840027087B
:101B2A00303E83138000DC2D043028062904031973
:101B3A009F2DA02DA72D073028062904031DA62DA9
:101B4A00A72DAE2D2808BE3E84003A3083138000AC
:101B5A00DC2D280329040319B32DB42DC22D0A3014
:101B6A00280629040319BA2DBB2DC22D0D302806CB
:101B7A002904031DC12DC22DC92D2808BE3E84008B
:101B8A00203083138000DC2D25082407A2002208B8
:101B9A00840083130008FF002808BE3E84007F08E3
:101BAA0080000130A5070318A60A0030A6070130F5
:101BBA00A8070318A90A0030A90700302902103023
:101BCA0003192802031CEA2DEB2D8B2D8316031310
:101BDA00CE01080083120313AE01AF0100300A12CE
:101BEA008A1568250A128A158312031355085604A2
:101BFA00031D002E012E182E1530F6008530F70031
:101C0A008030F8000A128A150B210A128A1502304E
:101C1A00F6008530F700C030F8000A128A150B2149
:101C2A000A128A152E2E4530F6008430F7008030CD
:101C3A00F8000A128A150B210A128A15BE30F6001C
:101C4A000030F700C030F8000A128A150B210A1278
:101C5A008A1501300A128A158B200A128A158312F4
:101C6A000313AA00AB012A08AC002B08AD003E30D2
:101C7A002C062D04031D422E432E562E2E082F0409
:101C8A000319482E492E4F2E0130AE020030031C94
:101C9A00AF03AF022E080A128A1568250A128A159E
:101CAA00F92D3D302C062D04031D5C2E5D2E7C2E55
:101CBA005508FF3EAA0056080318013EFF3EAB0036
:101CCA002B082F02031D6B2E2A082E0203186E2ED4
:101CDA006F2E752E0130AE070318AF0A0030AF071A
:101CEA002E080A128A1568250A128A15F92D2F302C
:101CFA002C062D04031D822E832EF92D0800831233
:101D0A000313A000200803198B2E8C2EA02EF51F7A
:101D1A008F2E902EA02E7209A2007309A3007409B7
:101D2A00A4007509A500A20A0319A30A0319A40AA3
:101D3A000319A50AA82E7508A5007408A40073083B
:101D4A00A3007208A2007508740473047204031DC8
:101D5A00AF2EB02EB92E0030F5000030F40000305E
:101D6A00F3000030F200392F9630A100C72E01305F
:101D7A00A10701300310A50CA40CA30CA20CFF3E72
:101D8A00031DBF2EFE302505031DCC2ECD2EBC2EE5
:101D9A00E72E0130A1070130A207003003180130F5
:101DAA00A307003003180130A407003003180130DC
:101DBA00A50701300310A50CA40CA30CA20CFF3E2E
:101DCA00031DDF2EFF302505031DEC2EED2ECE2E32
:101DDA00F92E0130A1020130F6000310A20DA30D65
:101DEA00A40DA50DF60BF22EA41BFC2EFD2E032F1F
:101DFA00023021020318022F032FEE2E2118062F7C
:101E0A00072F0F2FFF30A205FF30A3057F30A4054F
:101E1A00FF30A5050310A10C2108F600F701F8010F
:101E2A00F90118300310F60DF70DF80DF90DFF3E04
:101E3A00031D172F7608A2047708A3047808A404C0
:101E4A007908A504200803192B2F2C2F312FF51FF1
:101E5A002F2F302F312FA5172508F5002408F4005D
:101E6A002308F3002208F20008007830F6008430D4
:101E7A00F7008030F8000A128A150B210A128A1517
:101E8A00831203135B085C04031D4C2F4D2F582F3C
:101E9A005630F6008430F700C030F8000A128A156E
:101EAA000B210A128A1501300A128A158B200A128E
:101EBA008A1583120313A4003E302406031D662FDD
:101ECA00672F7D2F5B084D3E8400303083138000DE
:101EDA000130DB070318DC0A0030DC075B08C03E70
:101EEA00F9002A300A128A11E8270A128A15982F4D
:101EFA003D302406031D822F832F982F5B084D3E09
:101F0A0084003130831380000130DB070318DC0AB8
:101F1A000030DC075B08C03EF9002A300A128A1139
:101F2A00E8270A128A150430831203135B065C043D
:101F3A00031DA02FA12FFF2FA501A6012508BA3E38
:101F4A00840083130008A10025084D3E8400000880
:101F5A0021060319B12FB22FB32FC22F0130A507C3
:101F6A000318A60A0030A607003026020430031917
:101F7A002502031CC12FC22FA32F043025062604D5
:101F8A00031DC82FC92FE62F0130DD008930F60066
:101F9A008430F700C030F8000A128A150B210A12A1
:101FAA008A150D3083120313A300AF30A200B53097
:101FBA00A100A10BDE2FA20BDE2FA30BDE2FE52F34
:101FCA00FF2FDD010130D9070318DA0A0030DA07DA
:101FDA00DB01DC01033059065A04031DF52FF62FE5
:101FEA00FF2F0A128A1575230A128A158312031300
:101FFA00D901DA010800FF1B0A2883137F18831707
:10200A000008840A0319FF0A08007F087F398A003A
:0A201A000408840A0319FF0A82007B
:102D3C008316031306083F38860008008316031316
:102D4C009F17831203131F140800F20101300A129B
:102D5C008A1500220A168A11080064008001840A70
:102D6C000406031900340406B42E0A168A1103272C
:102D7C000A168A1183160313111408000A168A11F5
:102D8C0003270A168A1183160313111508008316DC
:102D9C0003138112811506308312031381008B16E5
:102DAC0008000A168A11C4260A168A110A168A11F4
:102DBC00BB260A168A110800F2000A168A1103278C
:102DCC000A168A11720883120313930008008316E3
:102DDC0003138801091189100A128A1529240A166D
:102DEC008A110800F20072088312031399000C1E5A
:102DFC00002F012FFD2E0C1208008316031314193B
:102E0C00082F092F032F11081F39031D0E2F0F2F09
:102E1C00032F080000300A128A15B5200A168A11F1
:102E2C00F6007F30F6057608F30000300A168A119A
:102E3C0022270A168A110800F4000A168A11BB26EA
:102E4C000A168A11D0300A168A11E2260A168A113D
:102E5C0074080A168A11E2260A168A1173080A16D1
:102E6C008A11E2260A168A110A168A11C4260A1633
:102E7C008A110800323485342F3485342334853458
:102E8C0026348534293485342C34853435348534D2
:102E9C0020348534A8348434B7348434D534843421
:102EAC0099348434C634843430343134303431344D
:102EBC00F5007508F40003300310F40DFF3E031DFC
:102ECC00622F831203131F08C73974049F001F1548
:102EDC001F19712F722F6E2F1E08F7008316031304
:102EEC001E08F6007708F3007608F200080083123B
:102EFC000313D501D6012330F6008430F70080305F
:102F0C00F8000A128A150B210A168A110D30831249
:102F1C000313A200AF30A100B530A000A00B942F7A
:102F2C00A10B942FA20B942F9B2F080076088400E2
:102F3C0002300A128A15B5200A168A1183138000F2
:102F4C00760A840001300A128A15B5200A168A11F5
:102F5C00831380007608023E840000300A128A1522
:102F6C00B5200A168A11831380000800F2000A1695
:102F7C008A1103270A168A118316031391150A1650
:102F8C008A1103270A168A11831203131308F300FC
:102F9C007203031DD22FD32FD72F83160313911631
:102FAC00DA2F83160313911211167308080083127B
:102FBC000313A001A1012008CF3E8400200878074C
:102FCC000A128A15E0200A168A1183138000013038
:102FDC0083120313A0070318A10A0030A1070030C5
:102FEC0021020A3003192002031CFD2FFE2FE12FB2
:042FFC00CF300800CA
:08400000FF3FFF3FFF3FFF3FC0
:02400E00FB3F76
:00000001FF
