:060000000A128A110C280F
:10000800FE00030EF0000A08F1000A168A11C02D3E
:100018000A128A110F288313E530FD001430FE0000
:10002800D030FF00C63084000A168A1126240A122E
:100038008A116E30FD001330FE00BA30FF006B30BD
:1000480084000A168A1126240A128A11A030840014
:10005800C6300A168A11D2230A128A114F30840038
:100068006B300A168A11D2230A128A11FA01FB018F
:1000780083010A168A11292F831203135C08A20030
:10008800A3012208F2002308F3000A30F40000302C
:10009800F5000A168A1175250A128A1183120313AC
:1000A8005D087207A4000030031801307307A5002B
:1000B8002408F03EA70025080318013EFD3EA800CD
:1000C8005F08A200A3012208F2002308F3000A3007
:1000D800F4000030F5000A168A1175250A128A11F3
:1000E8008312031360087207A4000030031801305C
:1000F8007307A5002408F03EA90025080318013E4F
:10010800FD3EAA006208A200A3012208F20023080B
:10011800F3000A30F4000030F5000A168A1175253C
:100128000A128A118312031363087207A4000030AD
:10013800031801307307A5002408F03EAB0025081A
:100148000318013EFD3EAC00AD01AE016930F6007A
:100158008530F7008030F8000A168A1168260A12DE
:100168008A11C430F9000A30F2000030F30083121B
:1001780003132808F5002708F4000A128A156E20D0
:100188000A128A117208303E0A168A1149240A1284
:100198008A11C530F9000A30F2000030F3008312EA
:1001A80003132808F5002708F4000A168A11C8273F
:1001B8000A128A117208303E0A168A1149240A1254
:1001C8008A11C630F9003A300A168A1149240A12EF
:1001D8008A11C730F9000A30F2000030F3008312A8
:1001E80003132A08F5002908F4000A128A156E205C
:1001F8000A128A117208303E0A168A1149240A1214
:100208008A11C830F9000A30F2000030F300831276
:1002180003132A08F5002908F4000A168A11C827CA
:100228000A128A117208303E0A168A1149240A12E3
:100238008A11C930F9003A300A168A1149240A127B
:100248008A11CA30F9000A30F2000030F300831234
:1002580003132C08F5002B08F4000A128A156E20E7
:100268000A128A117208303E0A168A1149240A12A3
:100278008A11CB30F9000A30F2000030F300831203
:1002880003132C08F5002B08F4000A168A11C82756
:100298000A128A117208303E0A168A1149240A1273
:1002A8008A11831203132E08A1002D08A0000A1238
:1002B8008A1535200A128A1101300A168A11E82592
:1002C8000A128A1183120313A6003E302606031D64
:1002D8006E296F29C8292D082E04031D7429752934
:1002E8008C291830F2000030F3002708013EF40092
:1002F80028080318013E003EF5000A168A11C8278F
:100308000A128A11730883120313A8007208A7003F
:100318002D032E04031D91299229A9293C30F200AE
:100328000030F3002908013EF4002A080318013EB2
:10033800003EF5000A168A11C8270A128A117308A6
:1003480083120313AA007208A90002302D062E0496
:10035800031DAF29B029B5283C30F2000030F30066
:100368002B08013EF4002C080318013E003EF5005E
:100378000A168A11C8270A128A11730883120313EE
:10038800AC007208AB00B5283D302606031DCD2908
:10039800CE29E6290330F2000030F3002D08013E93
:1003A800F4002E080318013E003EF5000A168A11D3
:1003B800C8270A128A11730883120313AE00720841
:1003C800AD00B52837302606031DEB29EC298D2A08
:1003D8000A30F2000030F3002808F5002708F4007E
:1003E8000A168A11C8270A128A117208831203137F
:1003F800A2007308A3000A30F2000030F3002808B6
:10040800F5002708F4000A128A156E200A128A11CC
:10041800720883120313A40003300310A40DFF3ED7
:10042800031D112A0310240D2204F90002300A16B4
:100438008A1130250A128A110A30F2000030F300BE
:10044800831203132A08F5002908F4000A168A11F2
:10045800C8270A128A11720883120313A2007308AC
:10046800A3000A30F2000030F3002A08F50029083A
:10047800F4000A128A156E200A128A117208831271
:100488000313A40003300310A40DFF3E031D472AE5
:100498000310240D2204F90001300A168A113025B0
:1004A8000A128A110A30F2000030F3008312031393
:1004B8002C08F5002B08F4000A168A11C8270A121E
:1004C8008A11720883120313A2007308A3000A306A
:1004D800F2000030F3002C08F5002B08F4000A1293
:1004E8008A156E200A128A11720883120313A40057
:1004F80003300310A40DFF3E031D7D2A0310240DB5
:100508002204F90000300A168A1130250A128A11CD
:10051800932A2F302606031D922A932AB52808000D
:10052800831203132D08B7008030B7052D08AE00DD
:100538002E07BE00AC1FA12AA22AA32A3E143E08F9
:100548000319A72AA82AB82A3E0A031DAC2AAD2AED
:10055800B52A0030AD000030AC000030AB000030F0
:10056800AA00AC17AD01C02A0030AD000030AC00C5
:100578000030AB000030AA0029088039B7062908E6
:10058800AE002E07BF00A81FCA2ACB2ACC2A3F14C8
:100598003F080319D02AD12AE12A3F0A031DD52A88
:1005A800D62ADE2A0030A9000030A8000030A700B3
:1005B8000030A600A817A901E92A0030A9000030D8
:1005C800A8000030A7000030A60029082804270446
:1005D8002604031DF02AF12A082B0030AD00003054
:1005E800AC000030AB000030AA008030AC047F3093
:1005F800AD043708AD042D08A9002C08A8002B0865
:10060800A7002A08A6005D2C3E08031D0C2B0D2B05
:10061800162B0030A9000030A8000030A7000030D9
:10062800A6005D2C3E08AE00AF012F08B1003F08C0
:100638002E02B000031CB10330087F3EB800310819
:100648000318013E003EB9002D08B6002C08B5007D
:100658002B08B4002A08B3000030AD000030AC000D
:100668000030AB000030AA000030BD000030BC00F4
:100678000030BB000030BA00BF018A2B3F080319C5
:10068800462B472B672B0130AE000310B30DB40D7A
:10069800B50DB60DAE0B492B0130AE000310AA0DF7
:1006A800AB0DAC0DAD0DAE0B522BBD1F5C2B5D2BF6
:1006B8005E2B2A140130AE000310BA0DBB0DBC0D21
:1006C800BD0DAE0B602B29083602031D752B2808BB
:1006D8003502031D752B27083402031D752B2608C8
:1006E8003302031C782B792B882B3D172608B3027D
:1006F8002708031C270FB4022808031C280FB5027B
:100708002908031C290FB6020130BF071A303F021F
:10071800031C8F2B902B422B3608350434043304EA
:100728000319972B982BB72B3A14B72B0130AE002F
:100738000310AA0DAB0DAC0DAD0DAE0B9C2BBD1F60
:10074800A62BA72BA82B2A140130AE000310BA0D34
:10075800BB0DBC0DBD0DAE0BAA2BFF30B80703189F
:10076800B90AFF30B907AC1FBA2BBB2B9A2BBF01B4
:10077800BD1FBF2BC02BDC2BFF303A05AE00FF306E
:100788003B05AF00FF303C05B0007F303D05B100B0
:10079800310830042F042E040319D32BD42BD72B64
:1007A8000130BF00DC2B2A1CDA2BDB2BDC2BD42BF3
:1007B8003F080319E02BE12B122C0130AA07003067
:1007C80003180130AB07003003180130AC070030C4
:1007D80003180130AD072D1CF22BF32B122C2A081D
:1007E800AE002B08AF002C08B0002D08B100013076
:1007F800B200310DB10CB00CAF0CAE0CB20BFD2B2E
:100808003108AD003008AC002F08AB002E08AA0054
:100818000130B8070318B90A0030B9073908803A17
:10082800FF0080307F02031D1B2CFF303802031CA1
:100838001E2C1F2C2D2CFF3083120313B800003000
:10084800B9000030AD000030AC000030AB00003023
:10085800AA00831203133908803AFF0080307F0210
:10086800031D382C0130380203183B2C3C2C492C32
:1008780083120313B801B9010030AD000030AC0099
:100888000030AB000030AA00B70183120313380808
:10089800BE003E1C502C512C532CAC17552C7F30CD
:1008A800AC053E08AE0003102E0CAD003708AD04B1
:1008B800FF2A080083120313AE01AF0100300A12A9
:1008C8008A1566230A128A118312031357085804DB
:1008D800031D6F2C702C872C7830F6008630F700BB
:1008E8008030F8000A168A1168260A128A116530C3
:1008F800F6008630F700C030F8000A168A1168261C
:100908000A128A119D2CBE30F6008530F70080301F
:10091800F8000A168A1168260A128A11A530F6000C
:100928000030F700C030F8000A168A1168260A124B
:100938008A1101300A168A11E8250A128A118312CF
:100948000313AA00AB012A08AC002B08AD003E3007
:100958002C062D04031DB12CB22CC52C2E082F04F7
:100968000319B72CB82CBE2C0130AE020030031C82
:10097800AF03AF022E080A128A1566230A128A11DB
:10098800682C3D302C062D04031DCB2CCC2CEB2CD5
:100998005708FF3EAA0058080318013EFF3EAB0067
:1009A8002B082F02031DDA2C2A082E020318DD2C2F
:1009B800DE2CE42C0130AE070318AF0A0030AF0775
:1009C8002E080A128A1566230A128A11682C2F30FB
:1009D8002C062D04031DF12CF22C682C080083161C
:1009E80003131419F82CF92CF32C11081F39031DC3
:1009F800FE2CFF2CF32C08002334203454344934C3
:100A08004D344534203420342034203420344534C7
:100A180056342034533450340A340034503441347A
:100A28005334533457344F345234443420344D34CF
:100A3800493453344D344134543443344834003405
:100A4800523445342D3445344E34543445345234BC
:100A580020344E34453457342034503441345334E0
:100A680053340034203420342034203420342034CB
:100A780020342034203420342034203420342034CE
:100A8800203420340034203445344E345434453432
:100A9800523449344E34473420345734413449347D
:100AA8005434203420340034203445344E34543403
:100AB8004534523420345034413453345334573449
:100AC8004F34523444342034003420342034203419
:100AD8002034483448343A344D344D343A3453345D
:100AE8005334203420342034203400342034453426
:100AF8004E3454344534523420344E34453457340B
:100B08002034503441345334533420340034433483
:100B18006C3465346134723469346E34673420342B
:100B28004C346F34673473342E342E342E340034FE
:100B3800503441345334533457344F34523444349A
:100B480020344334483441344E34473445344434F3
:100B580000342034543449344D344534203420345E
:100B6800203420342034453456342034203453344F
:100B78005034003423342034543449344D3445340B
:100B88002034203420342034203445345634203462
:100B9800533450340034413463346334653473342B
:100BA800733420344734723461346E3474346534A9
:100BB80064342E3400345334653463346F346E3403
:100BC8006434733420346C346534663474343A34A1
:100BD80020340034413463346334653473347334FB
:100BE8002034443465346E346934653464342E34C6
:100BF80000345334653474342034543469346D34D7
:100C08006534203420342034203420342034003417
:100C1800563469346534773420344C346F3467344F
:100C28002034203420342034203420340034433419
:100C38006C3465346134723420344C346F34673426
:100C480020342034203420342034003443346834B1
:100C580061346E346734653420345034613473340D
:100C68007334203420342034003444346F347734DF
:100C78006E346C346F346134643420344C346F34E3
:100C8800673420342034003444346F3477346E347D
:100C98006C346F346134643469346E3467342E34A0
:100CA8002E342E34003441347434743465346D3445
:100CB8007034743420344C346534663474343A34C3
:100CC800003441347634613469346C3461346234CC
:100CD8006C34653400344C346F34673473342034E6
:100CE80061347234653400344E346F3420344C34FB
:100CF8006F346734733400342A3420340034433476
:100D0800203400344734313400344734323400342A
:100D180047343334003447343434003447344E34A1
:100D280000344F344E340034473452340034831284
:100D38000313D301D4015830F6008530F700803012
:100D4800F8000A168A1168260A128A1183120313F8
:100D580053085404031DB12EB22EBD2E3630F600B2
:100D68008530F700C030F8000A168A1168260A1282
:100D78008A1101300A168A11E8250A128A1183128B
:100D88000313A400033083120313A3008A30A200C4
:100D98005530A100A10BCE2EA20BCE2EA30BCE2E2A
:100DA8003E30831203132406031DDB2EDC2EF22EA5
:100DB8005308A03E84003030831380000130D307ED
:100DC8000318D40A0030D4075308C03EF9002A306B
:100DD8000A168A1149240A128A110D2F3D30240659
:100DE800031DF72EF82E0D2F5308A03E8400313036
:100DF800831380000130D3070318D40A0030D407C6
:100E08005308C03EF9002A300A168A1149240A12EA
:100E18008A11003083120313540204300319530259
:100E2800031C172F182F2C2F5308A03E8400831360
:100E380080011A3083120313A3005E30A2006D30C4
:100E4800A100A10B252FA20B252FA30B252F2C2F9B
:100E580004308312031353065404031D342F352F13
:100E68009F2EA501A6012508E03E840083130008F3
:100E7800A1002508A03E8400000821060319452F7B
:100E8800462F472F562F0130A5070318A60A003012
:100E9800A60700302602043003192502031C552F2B
:100EA800562F372F043025062604031D5C2F5D2F8F
:100EB8007A2F0130DB00CF30F6008530F700C030E4
:100EC800F8000A168A1168260A128A110D30831250
:100ED8000313A300AF30A200B530A100A10B722FFD
:100EE800A20B722FA30B722F792FD72FDB01EE30B5
:100EF800F6008530F700C030F8000A168A11682617
:100F08000A128A11273083120313A3000D30A2009E
:100F18002530A100A10B8E2FA20B8E2FA30B8E2F95
:100F2800952F013083120313D1070318D20A00301A
:100F3800D207D301D4015730F6008630F700C0300D
:100F4800F8000A168A1168260A128A11CD30F900AB
:100F5800831203135108333C0A168A1149240A12D2
:100F68008A11273083120313A3000D30A200253005
:100F7800A100A10BBD2FA20BBD2FA30BBD2FC42F0A
:100F880003308312031351065204031DCC2FCD2FB7
:100F98009F2E0A128A1502210A128A11831203133C
:100FA800D101D2019F2E0800DD2F0130F207013058
:100FB800F3077308840083130008F40072088400A0
:100FC80000087406031DE92FEA2FF12F7208840028
:100FD8000008031DF02FF12FD92F73088400000893
:100FE800F400720884000008F50074087502F20025
:080FF800F301031CF3030800E0
:101002000A168A11C3230A128A150A168A110C2497
:101012000A128A150A168A11BD230A128A1500308D
:1010220083120313A9000130A8008630A700A03064
:10103200A6000A168A11F7260A128A150A168A11BA
:1010420035240A128A15003083120313A9000030D6
:10105200A8002530A7008030A6000A168A11C726EC
:101062000A128A158B170800831203132008210421
:10107200031D3C283D2849284430F6008530F700FE
:10108200C430F8000A168A1168260A128A156D28D9
:1010920020032104031D4E284F285B284430F6000C
:1010A2008530F700C730F8000A168A1168260A123E
:1010B2008A156D28023020062104031D612862284A
:1010C2006D284430F6008530F700CA30F8000A1661
:1010D2008A1168260A128A150800F601F7017208B9
:1010E2007304031975287628AB280130F80082288A
:1010F20001300310F20DF30DFF3E031D7A2801307B
:10110200F807F31F85288628792801300310F60D89
:10111200F70DFF3E031D872873087502031D9328F0
:1011220072087402031C962897289E287208F402FB
:101132007308031CF503F502761401300310F30C57
:10114200F20CFF3E031D9F280130F802031DAA285E
:10115200AB2886287708F3007608F20008007908A1
:1011620084008313000883120313A00004300310C9
:10117200A00CFF3E031DB82820080339303EDC00D6
:101182007908840000080F39303EDD003A30DE0075
:10119200790A84000008A00004300310A00CFF3E6E
:1011A200031DCE2820080739303EDF00790A84006B
:1011B20000080F39303EE0003A30E1007908023E83
:1011C20084000008A00004300310A00CFF3E031DA1
:1011D200E52820080739303EE2007908023E840003
:1011E20000080F39303EE300E4015C30F6000030C5
:1011F200F700C030F8000A168A1168260A128A150A
:1012020008000A168A11EC230A128A154E29473061
:10121200F6008530F7008030F8000A168A11682639
:101222000A128A15DF30F6008530F700C030F80068
:101232000A168A1168260A128A15CE30F9000A3077
:10124200F2000030F300831203136C08F5006B0800
:10125200F4000A128A156E200A128A157208303EAC
:101262000A168A1149240A128A15CF30F9000A3067
:10127200F2000030F300831203136C08F5006B08D0
:10128200F4000A168A11C8270A128A157208303E1B
:101292000A168A1149240A128A15831203136B084B
:1012A2006C04031D5529562908291E30EB00003015
:1012B200EC0008006F30F6008630F7008030F8004E
:1012C2000A168A1168260A128A154830F6008630F4
:1012D200F700C030F8000A168A1168260A128A1529
:1012E2000030F3008530F4000A168A119A250A129A
:1012F2008A1583120313AD01AE01AB292D080A1220
:101302008A1566230A128A15A530F3000030F4000C
:101312000A168A119A250A128A150A300A168A11A1
:1013220017240A128A150D3083120313AC00AF3052
:10133200AB00B530AA00AA0B9C29AB0B9C29AC0BC5
:101342009C29A329013083120313AD070318AE0AA7
:101352000030AE0758082E02031DB12957082D028E
:10136200031CB429B5297F290800C330F700CD300A
:10137200F600F60BBA29F70BBA29F20133300A1636
:101382008A115C270A128A151B30F7009E30F6007C
:10139200F60BC929F70BC9290000F20133300A16EE
:1013A2008A115C270A128A15A630F600F60BD72995
:1013B2000000F20133300A168A115C270A128A15DC
:1013C200E229E3290000F20102300A168A115C27A1
:1013D2000A128A15A630F600F60BED290000F2017A
:1013E20028300A168A115C270A128A15A630F600DE
:1013F200F60BF9290000F20101300A168A115C2766
:101402000A128A150430F7003D30F600F60B072A5F
:10141200F70B072A0C2AF2010C300A168A115C27F4
:101422000A128A15A630F600F60B152A00000800EB
:10143200003083120313A4000030A3000030A20086
:101442000030A100750874047304720403192A2A77
:101452002B2A762A0130A500392A0130A000031078
:10146200F20DF30DF40DF50DA00B302A0130A50796
:10147200F51F3C2A3D2A2E2A0130A0000310A10D9F
:10148200A20DA30DA40DA00B3F2A75087902031D1E
:10149200542A74087802031D542A73087702031D24
:1014A200542A72087602031C572A582A672A72089D
:1014B200F6027308031C730FF7027408031C740FFF
:1014C200F8027508031C750FF9022114013003108C
:1014D200F50CF40CF30CF20CFF3E031D682A0130EC
:1014E200A502031D752A762A3D2A2408F500230841
:1014F200F4002208F3002108F200080034308312BD
:101502000313A9000030A100A2000A128A15ED23DC
:101512000A128A1583120313AA000A168A115E247C
:101522000A128A150A168A11CA230A128A152F303C
:1015320083120313A9000130A1000030A2000A1295
:101542008A15ED230A128A1583120313AA000A16BA
:101552008A115E240A128A150A168A11CA230A12ED
:101562008A153430F2002F30F3000A128A11D8277C
:101572000A128A1572087304031DC02AC12AE32ABB
:101582003430F2000A168A1192240A128A159C300B
:10159200F6008530F7008030F8000A168A116826B6
:1015A2000A128A15273083120313AE000D30AD00E4
:1015B2002530AC00AC0BDB2AAD0BDB2AAE0BDB2AF1
:1015C200E22AEF2A1230F6008530F7008030F80068
:1015D2000A168A1168260A128A15D32A08000310ED
:1015E20083120313420D430DC9004908031DFA2A51
:1015F200FB2A042B0030C3000030C2000030C100BF
:101602000030C000652B4008C4004108C5004208F4
:10161200C6004308C7001F300310C70CC60CC50C18
:10162200C40CFF3E031D0D2B4408C800C217FF3037
:10163200C005FF30C105FF30C2050030C30596303A
:10164200C902C91F252B262B3E2B4908803A973EFB
:1016520003182C2B2D2B2E2BFB2A01300310C30C2D
:10166200C20CC10CC00CFF3E031D2F2B0130C90759
:10167200031D3C2B3D2B2E2B552B20304902031CE6
:10168200432B442B502BFB2A0130C4000310C00D06
:10169200C10DC20DC30DC40B472B0130C90249084D
:1016A200031D542B552B452B48080319592B5A2B34
:1016B200652BC009C109C209C309C00A0319C10ABD
:1016C2000319C20A0319C30A080083120313A700ED
:1016D2002708A200A3012208F2002308F3000A301F
:1016E200F4000030F5000A168A1175250A128A15CF
:1016F2007308F9007208F8000A168A1152250A12B4
:101702008A1583120313A400A501A601A801A90149
:1017120028082904031D8E2B8F2B972B2808A53E02
:1017220084002708303E83138000DA2B0430280619
:10173200290403199D2B9E2BA52B0730280629046B
:10174200031DA42BA52BAC2B2808A53E84003A3000
:1017520083138000DA2B280329040319B12BB22B3F
:10176200C02B0A30280629040319B82BB92BC02B29
:101772000D3028062904031DBF2BC02BC72B2808B8
:10178200A53E8400203083138000DA2B250824072D
:10179200A2002208840083130008FF002808A53E47
:1017A20084007F0880000130A5070318A60A0030D4
:1017B200A6070130A8070318A90A0030A9070030BC
:1017C2002902103003192802031CE82BE92B892B6C
:1017D20083160313B50108008312031321082204A0
:1017E2000319F42BF52B012C2430F6008530F70079
:1017F2008030F8000A168A1168260A128A150C2C03
:101802007A30F6008530F7008030F8000A168A1127
:1018120068260A128A1583120313A701A801013050
:101822000A168A11E8250A128A1583120313A600E2
:101832002708C03EF9005F300A168A1149240A12AD
:101842008A15831203132708C03EF90020300A16B6
:101852008A1149240A128A153E308312031326067E
:10186200031D342C352C4D2C2708C03EF9002A309C
:101872000A168A1149240A128A15831203132708A9
:10188200C13E84003030831380000130A707031863
:10189200A80A0030A807652C3D302606031D522CED
:1018A200532C652C2708C03EF9002A300A168A11EB
:1018B20049240A128A15831203132708C13E8400A1
:1018C200313083138000462C003028020430031983
:1018D2002702031C6D2C6E2C102C1A30831203135A
:1018E200A5005E30A4006D30A300A30B762CA40BE0
:1018F200762CA50B762C7D2CC130080083120313A5
:10190200A00020080319862C872C9B2CF51F8A2CFB
:101912008B2C9B2C7209A2007309A3007409A400EA
:101922007509A500A20A0319A30A0319A40A031937
:10193200A50AA32C7508A5007408A4007308A300C7
:101942007208A2007508740473047204031DAA2CA1
:10195200AB2CB42C0030F5000030F4000030F30062
:101962000030F200342D9630A100C22C0130A107C4
:1019720001300310A50CA40CA30CA20CFF3E031D06
:10198200BA2CFE302505031DC72CC82CB72CE22C1F
:101992000130A1070130A207003003180130A3076C
:1019A200003003180130A407003003180130A507E6
:1019B20001300310A50CA40CA30CA20CFF3E031DC6
:1019C200DA2CFF302505031DE72CE82CC92CF42C5A
:1019D2000130A1020130F6000310A20DA30DA40DE7
:1019E200A50DF60BED2CA41BF72CF82CFE2C0230C7
:1019F20021020318FD2CFE2CE92C2118012D022DA9
:101A02000A2DFF30A205FF30A3057F30A405FF3069
:101A1200A5050310A10C2108F600F701F801F90150
:101A220018300310F60DF70DF80DF90DFF3E031DEA
:101A3200122D7608A2047708A3047808A404790872
:101A4200A50420080319262D272D2C2DF51F2A2D3C
:101A52002B2D2C2DA5172508F5002408F4002308AA
:101A6200F3002208F20008006430831203135506C3
:101A72005604031D3D2D3E2D402DD501D601F70103
:101A8200F8010230770678040319482D492D672D95
:101A9200053077067804031D4F2D502D512D672DEB
:101AA20077085C3E840083130008F300831203135B
:101AB20055080A168A1197260A128A1501308312CE
:101AC2000313D5070318D60A0030D6070130F707EB
:101AD2000318F80A0030F8070030780208300319BA
:101AE2007702031C752D762D422D7A08831203137B
:101AF200A0002007C63E840083130008A100840AC8
:101B02000008A2002208FF00210884000A168A1198
:101B120000200A128A15F30055080A168A11972620
:101B22000A128A15013083120313D5070318D60A45
:101B32000030D6070130A0007A08A1002107C63E76
:101B4200840083130008A200840A0008A30020086E
:101B52002207A5002308A4000318A40AA01BA403BB
:101B62002408A6002608FF00250884000A168A1108
:101B720000200A128A15F30055080A168A119726C0
:101B82000A128A15013083120313D5070318D60AE5
:101B92000030D6076508F30055080A168A11972601
:101BA2000A128A15013083120313D5070318D60AC5
:101BB2000030D6076608F30055080A168A119726E0
:101BC2000A128A15013083120313D5070318D60AA5
:101BD2000030D6070A30F2000030F3005708013E09
:101BE200F40058080318013E003EF5000A168A1157
:101BF200C8270A128A15730883120313D8007208C1
:101C0200D70008000A128A119B260A128A1583122B
:101C120003135B08031D0E2E0F2E102EF22EBF0192
:101C2200C001BC010A168A11CA230A128A1583123C
:101C320003133C08B900BA013908A0003A08A10010
:101C42000A168A1192270A128A15831203133F0871
:101C5200B9003907D63E840083130008F600840ACF
:101C620000088403F7008230F8000A168A116826F9
:101C72000A128A15831203133F08B9003907D83EA6
:101C8200840083130008F600840A00088403F70026
:101C9200C230F8000A168A1168260A128A15013023
:101CA2000A168A11E8250A128A1583120313BB0049
:101CB2003E303B06031D5E2E5F2E732E3C03031D3A
:101CC200632E642E662EBC01182E3F0840040319B1
:101CD2006B2E6C2E182E0130BF020030031CC00385
:101CE200C002182E3D303B06031D782E792E912E10
:101CF2003C08031D7D2E7E2E812E0130BC00182E45
:101D020000304002033003193F020318892E8A2E45
:101D1200182E0130BF070318C00A0030C007182E62
:101D220037303B06031D962E972EE42E3C083F07C4
:101D3200BD0040080318400ABE000A168A11CA23D1
:101D42000A128A15831203133D083E04031DAA2EAC
:101D5200AB2EB12E0A128A115E240A128A15182E8F
:101D62003D033E04031DB62EB72EBD2E0A168A1160
:101D7200B1240A128A15182E02303D063E04031DB4
:101D8200C32EC42ECA2E0A128A155B210A128A1584
:101D9200182E03303D063E04031DD02ED12ED72E21
:101DA2000A128A1140200A128A15182E04303D06A2
:101DB2003E04031DDD2EDE2E182E0A128A157F2206
:101DC2000A128A15182E2F303B06031DE92EEA2E21
:101DD200182E0A168A11CA230A128A1583120313AD
:101DE200DB01080083120313CC00AD30F60085300E
:101DF200F7008030F8000A168A1168260A128A153E
:101E02006830F6000A168A11EF240A128A15683021
:101E1200F9000A128A15B0200A128A153E3083127E
:101E220003134C06031D162F172F3C2F07307A067B
:101E32007B04031D1D2F1E2F232F0130FA000030BB
:101E4200FB00692F7B08803AFF0080307F02031D70
:101E52002C2F06307A0203182F2F302F692F0130D2
:101E6200FA070318FB0A0030FB070A128A15352508
:101E72000A128A15692F3D304C06031D412F422F4D
:101E82005E2F07307A067B04031D482F492F4A2F05
:101E92001E2F7B08803AFF0080307F02031D532FE4
:101EA20002307A02031C562F572F692FFF30FA0790
:101EB2000318FB0AFF30FB07362F3B304C06031D8D
:101EC200632F642F692F0730FA000030FB00362F92
:101ED2007A0883120313CA004A07C63E840083139A
:101EE2000008F600840A00088403F700CA30F800EC
:101EF2000A168A1168260A128A1500300A168A11F1
:101F020073240A128A15730883120313DA00720803
:101F1200D9005908F2005A08F300F401F501003023
:101F22000A128A157F240A128A157508831203136E
:101F3200AD007408AC007308AB007208AA0041300F
:101F4200A9002330A800AE30A7001430A6000A1260
:101F52008A1194220A128A15831203132908C300D4
:101F62002808C2002708C1002608C0000A128A15E4
:101F7200F0220A128A15831203134108DA0040087C
:101F8200D900643059065A04031DC82FC92FCF2F18
:101F92000130D9020030031CDA03DA020A30F200FF
:101FA2000030F3005A08F5005908F4000A128A15A5
:101FB2006E200A128A157208303E83120313E5005E
:101FC2000A30F2000030F3005A08F5005908F40014
:101FD2000A168A11C8270A128A157208303E83121D
:101FE2000313E600E7016530F6000030F700CE305B
:101FF200F8000A168A1168260A128A150800FF1BC1
:102002000A2883137F1883170008840A0319FF0A1A
:1020120008007F087F398A000408840A0319FF0A2E
:0220220082003A
:102774001E34003401348316031306083F388600E0
:102784000800831603139F17831203131F140800F2
:10279400F20101300A168A115C270A168A11080010
:1027A40064008001840A0406031900340406D32B50
:1027B4000A128A11F3240A168A11831603131114B8
:1027C40008000A128A11F3240A168A1183160313C5
:1027D4001115080083160313811281150630831224
:1027E400031381008B1608000A168A11E3230A16C4
:1027F4008A110A168A11DA230A168A110800F200CD
:102804000A128A11F3240A168A1172088312031316
:1028140093000800831603138801091189100A1212
:102824008A15B6210A168A110800F200720883126A
:10283400031399000C1E1F2C202C1C2C0C120800B6
:102844007E088A007F0882000A168A1122240A164A
:102854008A118000840A04087D0603190034FF0AE3
:102864000319FE0A262C00300A168A1112260A16AB
:102874008A1183120313A1007F30A1052108F900F6
:1028840000300A168A1130250A168A1108008312AC
:102894000313A000F20179080A168A115C270A16AC
:1028A4008A11F201F20A8312031320080A168A110C
:1028B4005C270A168A110800831203132908AB0047
:1028C4002A08AA0A840083130008FF002B08AB0A15
:1028D40084007F0880000008031D712C722C622C78
:1028E4000800F7007708F40003300310F40DFF3EEE
:1028F400031D772C831203131F08C73974049F0028
:102904001F151F19862C872C832C1E08F60083168E
:1029140003131E08F5007608F3007508F20008009A
:10292400F401F50174087207F3007308840083133B
:102934000008FF007408E03E84007F088000013036
:10294400F4070318F50A0030F50700307502053066
:1029540003197402031CAF2CB02C942C08008312AE
:102964000313D701D8018B30F6008530F70080308F
:10297400F8000A168A1168260A168A110D30831285
:102984000313A200AF30A100B530A000A00BC82CE7
:10299400A10BC82CA20BC82CCF2C0800953486346C
:1029A4009234863486348634893486348C3486343E
:1029B4008F34863498348634833486340C348634A5
:1029C4001B34863439348634FD3485342A348634D1
:1029D40030343134303431340034760884000230F9
:1029E4000A168A1112260A168A1183138000760A9F
:1029F400840001300A168A1112260A168A118313DA
:102A040080007608023E840000300A168A111226DD
:102A14000A168A11831380000800F2000A128A1130
:102A2400F3240A168A118316031391150A128A11C4
:102A3400F3240A168A11831203131308F300720392
:102A4400031D252D262D2A2D8316031391162D2DB6
:102A540083160313911211167308080083120313CB
:102A6400A0000A168A11DA230A168A11D0300A162F
:102A74008A1101240A168A118312031320080A16E4
:102A84008A1101240A168A1179080A168A11012466
:102A94000A168A110A168A11E3230A168A110800F3
:102AA40083120313A001A1012008B63E840020086C
:102AB40078070A168A113D260A168A1183138000A4
:102AC400013083120313A0070318A10A0030A107E1
:102AD400003021020A3003192002031C722D732DC9
:102AE400562DB6300800F601F701721C7A2D7B2DA5
:102AF400812D7408F6070318F70A7508F7070130E3
:102B04000310F40DF50DFF3E031D822D013003105B
:102B1400F30CF20CFF3E031D892D72087304031D90
:102B2400942D952D772D7708F3007608F200080090
:102B3400AF2D7408FF00730884000A168A11002060
:102B44000A168A110A168A1117240A168A110130E4
:102B5400F3070318F40A0030F4077408831203130C
:102B6400FF00730884000A168A1100200A168A11CD
:102B7400003A031DBE2DBF2D9B2D08000B1DC32D38
:102B8400C42DE12D831203130108083E8100013096
:102B9400CF070318D00A0030D00720304F064E303C
:102BA40003195006031DD72DD82DE02DCF01D001D8
:102BB4000130EB020030031CEC03EC020B11710832
:102BC4008A00700E8300FE0E7E0E0900F300730867
:102BD400031DED2DEE2DF32D8312031306083F394B
:102BE400112E3F30831203130605F2003F307206A4
:102BF4000319FD2DFE2D052E6D080319022E032E3B
:102C0400052EED01EE2D3F300605F2003F30720631
:102C1400031D0D2E0E2E102E0130ED003F30080046
:102C2400F4000A168A11DA230A168A11D0300A1619
:102C34008A1101240A168A1174080A168A110124B9
:102C44000A168A110A168A11F6230A168A11D13035
:102C54000A168A1101240A168A1100300A168A11EA
:102C64000F250A168A11F5000A168A11E3230A169B
:102C74008A1175080800F4000A168A11DA230A1664
:102C84008A11A0300A168A1101240A168A117408BE
:102C94000A168A1101240A168A110A168A11F623C1
:102CA4000A168A11A1300A168A1101240A168A11F9
:102CB40000300A168A110F250A168A11F5000A1621
:102CC4008A11E3230A168A1175080800F2017808AC
:102CD4000A168A115C270A168A11862EF201F20A54
:102CE4007708FF00760884000A168A1100200A1665
:102CF4008A110A168A115C270A168A110130F6070E
:102D04000318F70A0030F707770883120313FF004C
:102D1400760884000A168A1100200A168A11003ADD
:102D2400031D952E962E702E0800F4000A168A11A3
:102D3400DA230A168A11A0300A168A1101240A1607
:102D44008A1174080A168A1101240A168A11730852
:102D54000A168A1101240A168A110A168A11E32313
:102D64000A168A11B830F5000B30F6000130F5026E
:102D74000030031CF603F602750A031DC52E760AFD
:102D8400031DC52EC62EB82E0800831203139817F0
:102D940018162608AA002708AB002808AC00290842
:102DA400AD0004300310AA0DAB0DAC0DAD0DFF3E0C
:102DB400031DD42E2D08F5002C08F4002B08F30075
:102DC4002A08F2000130F9003130F8002D30F70004
:102DD4000030F6000A128A1519220A168A1172089E
:102DE400FF3E8316031399000800831203139415FE
:102DF4002608AA002708AB002808AC002908AD0063
:102E040002300310AA0DAB0DAC0DAD0DFF3E031D3A
:102E1400032F2D08F5002C08F4002B08F3002A08D2
:102E2400F2000130F9003130F8002D30F7000030A5
:102E3400F6000A128A1519220A168A117208FF3E30
:102E440083160313930083120313941608000A12C3
:102E54008A1501200A168A1183120313CE01013048
:102E64000A168A11E8250A168A1183120313CD0063
:102E740037304D06031D3F2F402F422F0130CE0027
:102E84004E08031D462F472F4E2F4D080A128A1550
:102E9400F3260A168A11312F4E03031D522F532F86
:102EA400312F0A128A1503260A168A112E2F0A12A6
:102EB4008A110C28F5007218602F642F83120313F3
:102EC4000915672F8312031309117508F039880057
:102ED4008914A630F300F30B6D2F00008312031343
:102EE400891075080F39F30003300310F30DFF3E0A
:102EF400031D772F0310730D88008914A630F30087
:102F0400F30B822F00008312031389101B30F4008B
:102F14009E30F300F30B8C2FF40B8C2F0000080071
:102F24008312031320082104031D992F9A2FB12F14
:102F34008030F6008630F7008030F8000A168A11D7
:102F440068260A168A114430F6008530F700C0302E
:102F5400F8000A168A1168260A168A11C72F8030CB
:102F6400F6008630F700C030F8000A168A11682689
:102F74000A168A114430F6008530F7008030F800D4
:102F84000A168A1168260A168A1108007208730440
:102F94000319CD2FCE2FFB2F0130F600DA2F01308D
:102FA4000310F20DF30DFF3E031DD22F0130F6077F
:102FB400F31FDD2FDE2FD12F73087502031DE42FBD
:102FC40072087402031CE72FE82FEE2F7208F40234
:102FD4007308031CF503F50201300310F30CF20C23
:102FE400FF3E031DEF2F0130F602031DFA2FFB2FC6
:0C2FF400DE2F7508F3007408F2000800DE
:08400000FF3FFF3FFF3FFF3FC0
:02400E00FB3F76
:00000001FF
