:060000000A128A11C72F4D
:10000A0083120313CE005A30F4008830F500803092
:10001A00F6000A168A11C8220A128A116130F400FF
:10002A000A168A11BB210A128A116130F7000A16D0
:10003A008A1109240A128A115A30F4008830F5000C
:10004A008030F6000A168A11C8220A128A113E3036
:10005A00831203134E06031D332834285B28073006
:10006A0051065204031D3A283B2840280130D1008A
:10007A000030D20055285208803AFF0080307F02B3
:10008A00031D49280630510203184C284D285528CB
:10009A00013083120313D1070318D20A0030D207A2
:1000AA000A168A1197260A128A118A283D304E06A4
:1000BA00031D602861287F28073051065204031D5A
:1000CA006728682869283B285208803AFF00803050
:1000DA007F02031D722801305102031C75287628FD
:1000EA005528FF3083120313D1070318D20AFF30B1
:1000FA00D20755283B304E06031D842885288A28B6
:10010A000730D1000030D20055288312031351085A
:10011A00CA004A07CB3E840083130008F400840A0D
:10012A0000088403F500CA30F6000A168A11C822AC
:10013A000A128A1100300A168A117D210A128A11BE
:10014A00700883120313CA007108CB00CC01CD01D9
:10015A004D08F9004C08F8004B08F7004A08F60069
:10016A0000300A168A114A270A128A11790883125C
:10017A000313AD007808AC007708AB007608AA0034
:10018A004130A9002330A800AE30A7001430A600E1
:10019A000A128A1536260A128A11831203132908AB
:1001AA00C3002808C2002708C1002608C0000A1296
:1001BA008A1530220A128A11831203134108831600
:1001CA000313AF0083120313400883160313AE0010
:1001DA000A30F0000030F1002F08F3002E08F20078
:1001EA000A168A11C7230A128A117008303E83162A
:1001FA000313C8000A30F0000030F1002F08F300A2
:10020A002E08F2000A168A118F230A128A11700820
:10021A00303E83160313C900CA01C830F400003007
:10022A00F500CE30F6000A168A11C8220A128A117F
:10023A000800FC00D92A650803192429252952290E
:10024A006B30F4008830F5008030F6000A168A1107
:10025A00C8220A128A116B30F4008830F500C030C7
:10026A00F6000A168A11C8220A128A115C30F400B2
:10027A008930F5008030F6000A168A11C8220A125F
:10028A008A11C030F8005F300A168A11F1200A126A
:10029A008A1183120313D301E5013E307C06031D44
:1002AA005729582970290430530203185D295E29F9
:1002BA0070295308BE3E8400313083138000013018
:1002CA00D3075308BF3EF8002A300A168A11F120D4
:1002DA000A128A118D293D307C06031D752976295B
:1002EA008D290430530203187B297C298D29530850
:1002FA00BE3E84003030831380000130D307530898
:10030A00BF3EF8002A300A168A11F1200A128A1111
:10031A000430831203135306031D94299529E62AF0
:10032A0083160313C201013083120313D400D301CD
:10033A000130E500E62A65080319A429A529D1296F
:10034A006B30F4008830F5008030F6000A168A1106
:10035A00C8220A128A116B30F4008830F500C030C6
:10036A00F6000A168A11C8220A128A111C30F400F1
:10037A008930F5008030F6000A168A11C8220A125E
:10038A008A11C030F8005F300A168A11F1200A1269
:10039A008A1183120313E5013E307C06031DD62918
:1003AA00D729EF29043053020318DC29DD29EF2964
:1003BA005308B93E84003130831380000130D307DB
:1003CA005308BF3EF8002A300A168A11F1200A1291
:1003DA008A110C2A3D307C06031DF429F5290C2AC2
:1003EA00043053020318FA29FB290C2A5308B93E90
:1003FA0084003030831380000130D3075308BF3E96
:10040A00F8002A300A168A11F1200A128A110430D9
:10041A00831203135306031D132A142AE62A83168A
:10042A000313BD016B30F4008830F5008030F6000C
:10043A000A168A11C8220A128A116B30F40088300F
:10044A00F500C030F6000A168A11C8220A128A116B
:10045A00BE30F000B930F1000A168A1122220A12BF
:10046A008A1170087104031D3B2A3C2A5C2AE53074
:10047A00F000BE30F1000A168A1126210A128A11EA
:10048A00DC30F4008830F5008030F6000A168A1154
:10049A00C8220A128A119C30F4008830F500C03054
:1004AA00F6000A168A11C8220A128A11722A4C30D8
:1004BA00F4008930F5008030F6000A168A11C82245
:1004CA000A128A11CC30F4008830F500C030F600E8
:1004DA000A168A11C8220A128A11003083160313D7
:1004EA00A3000030A2000030A1000030A0000230BA
:1004FA0083120313D400E62A8316031323088312F4
:10050A000313A30083160313220883120313A20002
:10051A0083160313210883120313A10083160313FE
:10052A00200883120313A000013083160313A007C7
:10053A000030A1070318A20AA2070318A30AA307F7
:10054A00831203132308031DB82A2208031DB82A9D
:10055A002108031DB82A65302002031DB42A031C92
:10056A00B72AB82AE62A6B30F4008830F5008030C2
:10057A00F6000A168A11C8220A128A116B30F40090
:10058A008830F500C030F6000A168A11C8220A120D
:10059A008A1183120313D4010130E500D30101301B
:1005AA00FA000030FB00E82A831203135408003AC9
:1005BA0003192029013A0319A029033A0319812AA8
:1005CA00E62AFA01FB01080083120313A0005C0863
:1005DA000319F02AF12A9D2B4930F4008830F500DE
:1005EA008030F6000A168A11C8220A128A11B73018
:1005FA00F4008930F500C030F6000A168A11C822C4
:10060A000A128A11CB30F8000A30F0000030F100EB
:10061A00831203136A08FA00FB017A08F2007B08C6
:10062A00F3000A168A1168250A128A117008303EE8
:10063A000A168A11F1200A128A11CC30F8000A30FF
:10064A00F0000030F100831203136A08FA00FB017C
:10065A007A08F2007B08F3000A168A11AE240A12FD
:10066A008A117008303E0A168A11F1200A128A117C
:10067A00831603132708FD002608FC002508FB0043
:10068A002408FA000130A4070030A5070318A60AB7
:10069A00A6070318A70AA7077D08031D622B7C0873
:1006AA00031D622B7B08031D622B05307A02031D92
:1006BA005E2B031C612B622B9B2B003083160313CA
:1006CA00A7000030A6000030A5000030A400831265
:1006DA0003136A080319722B732B752B0130EA0274
:1006EA006A08031D792B7A2B9B2BDC011E30EA004A
:1006FA000330EB000130EC00DD01E0016B30F40067
:10070A008830F5008030F6000A168A11C8220A12CB
:10071A008A116B30F4008830F500C030F6000A16F2
:10072A008A11C8220A128A110230252D0030252D7D
:10073A006C080319A12BA22BCD2B7C30F400893035
:10074A00F5008030F6000A168A11C8220A128A11A8
:10075A006B30F4008830F500C030F6000A168A11B2
:10076A00C8220A128A1183120313DD0183160313A6
:10077A00AC01AD0183120313DB01C030F8005F3016
:10078A000A168A11F1200A128A1183120313EC0144
:10079A0004305D020318D22BD32B0A2C01308316A6
:1007AA000313AC070318AD0A0030AD0700302D0261
:1007BA00C83003192C02031CE32BE42B0A2CAC01CE
:1007CA00AD01831203135B080319EC2BED2BF72BF6
:1007DA005D08C03EF8005F300A168A11F1200A123D
:1007EA008A11002C5D08C03EF80020300A168A11D2
:1007FA00F1200A128A11831203135B080319062CCB
:10080A00082C0130092C0030DB003E308312200610
:10081A00031D102C112C3A2C04305D020318162CDF
:10082A00172C3A2C5D08C33E8400313083138000B4
:10083A005D08C03EF8002A300A168A11F1200A1211
:10084A008A11013083120313DD0704305D02031895
:10085A002F2C302C682C5D08C03EF8005F300A1639
:10086A008A11F1200A128A11682C3D302006031DD4
:10087A003F2C402C682C04305D020318452C462C72
:10088A00682C5D08C33E84003030831380005D0805
:10089A00C03EF8002A300A168A11F1200A128A117B
:1008AA00013083120313DD0704305D0203185E2C46
:1008BA005F2C682C5D08C03EF8005F300A168A116A
:1008CA00F1200A128A110430831203135D06031DF4
:1008DA006F2C702C9B2B83160313C701C330F000B7
:1008EA00E530F1000A168A1122220A128A117008CA
:1008FA007104031D812C822CA32C03308312031351
:10090A00EB006B30F4008830F5008030F6000A16F0
:10091A008A11C8220A128A116B30F4008830F50055
:10092A00C030F6000A168A11C8220A128A1101304A
:10093A0083120313EC00DD010130252D01308312EF
:10094A000313EB026C30F4008930F5008030F600B6
:10095A000A168A11C8220A128A11FC30F400883059
:10096A00F500C030F6000A168A11C8220A128A1146
:10097A00CE30F800831203136B08303E0A168A1130
:10098A00F1200A128A11003083120313A4000030E6
:10099A00A3000030A2000030A1000130831203132B
:1009AA00A107003003180130A207003003180130F4
:1009BA00A307003003180130A4072408031DF52CEF
:1009CA0001302302031DF12C86302202031DF12C73
:1009DA00A0302102031DF12C031CF42CF52CD22C7F
:1009EA006B30F4008830F5008030F6000A168A1160
:1009FA00C8220A128A116B30F4008830F500C03020
:100A0A00F6000A168A11C8220A128A1183120313DF
:100A1A006B08031D112D122D202D0130DC001E3014
:100A2A00EA00003083160313A7000030A600003046
:100A3A00A5000030A4008312DD010130EC009B2BDD
:100A4A00080083120313B000670803192D2D2E2DF9
:100A5A00802D6130F4000A168A11BB210A128A110C
:100A6A000F30831203136105A0000A30F0006108F9
:100A7A00A10004300310A10CFF3E031D3F2D2108E5
:100A8A0003390A168A1139210A128A1183120313A9
:100A9A002007D7000F306205A0000A30F000620874
:100AAA00A10004300310A10CFF3E031D572D21089D
:100ABA0007390A168A1139210A128A118312031375
:100ACA002007D6000F306305A0000A30F000630843
:100ADA00A10004300310A10CFF3E031D6F2D210855
:100AEA0007390A168A1139210A128A118312031345
:100AFA002007D500E7013E303006031D852D862DDF
:100B0A00AD2D5808031D8A2D8B2D952D0130D70741
:100B1A0018305702031C922D932DAD2DD701AD2D00
:100B2A005803031D992D9A2DA42D0130D6073C3068
:100B3A005602031CA12DA22DAD2DD601AD2D0130DB
:100B4A00D5073C305502031CAB2DAC2DAD2DD5017C
:100B5A003B303006031DB22DB32DBC2D0130D80712
:100B6A0003305802031CBA2DBB2DBC2DD8013D30D1
:100B7A003006031DC12DC22DEC2D5808031DC62DAC
:100B8A00C72DD22D5708031DCB2DCC2DCF2D1730B5
:100B9A00D700EC2D0130D702EC2D5803031DD62DBA
:100BAA00D72DE22D5608031DDB2DDC2DDF2D3B3022
:100BBA00D600EC2D0130D602EC2D5508031DE62D8A
:100BCA00E72DEA2D3B30D500EC2D0130D5020A3055
:100BDA00F0000030F1005708A000A1012008F2003F
:100BEA002108F3000A168A1168250A128A11700868
:100BFA00303E83120313A7000A30F0000030F100E0
:100C0A005708A000A1012008F2002108F3000A16E3
:100C1A008A11AE240A128A117008303E8312031315
:100C2A00A8003A30A9000A30F0000030F100560856
:100C3A00A000A1012008F2002108F3000A168A1177
:100C4A0068250A128A117008303E83120313AA001B
:100C5A000A30F0000030F1005608A000A101200877
:100C6A00F2002108F3000A168A11AE240A128A1128
:100C7A007008303E83120313AB003A30AC000A30DE
:100C8A00F0000030F1005508A000A1012008F20090
:100C9A002108F3000A168A1168250A128A117008B7
:100CAA00303E83120313AD000A30F0000030F10029
:100CBA005508A000A1012008F2002108F3000A1635
:100CCA008A11AE240A128A117008303E8312031365
:100CDA00AE00AF013830F4008830F5008430F600F9
:100CEA000A168A11C8220A128A11013083160313BE
:100CFA00A8070318A90A0030A907003029020530FD
:100D0A0003192802031C8A2E8B2E972EA801A901EB
:100D1A008312031366080319932E952E0130962E1B
:100D2A000030E6008312660803199C2E9D2EB82E09
:100D3A002730F4000030F500C430F6000A168A1194
:100D4A00C8220A128A11C32E2030A7002030A80018
:100D5A009D2E2030AA002030AB009D2E2030AD0001
:100D6A002030AE009D2E5808003A0319A92E013AE8
:100D7A000319AE2E033A0319B32E9D2E3730831270
:100D8A0003133006031DCA2ECB2EA02F0A30F00003
:100D9A000030F1005708A000A1012008F200210844
:100DAA00F3000A168A11AE240A128A1170088312F5
:100DBA000313A2007108A3000A30F0000030F1000A
:100DCA005708A400A5012408F2002508F3000A1612
:100DDA008A1168250A128A11700883120313A60061
:100DEA0003300310A60DFF3E031DF62E0310260D39
:100DFA002204F80002300A168A115F210A128A11A7
:100E0A000A30F0000030F100831203135608A000E4
:100E1A00A1012008F2002108F3000A168A11AE2463
:100E2A000A128A11700883120313A2007108A30020
:100E3A000A30F0000030F1005608A400A501240889
:100E4A00F2002508F3000A168A1168250A128A1187
:100E5A00700883120313A60003300310A60DFF3E89
:100E6A00031D322F0310260D2204F80001300A1642
:100E7A008A115F210A128A11831203135508A000EE
:100E8A00A1012008F2002108F3000A30F000003026
:100E9A00F1000A168A11AE240A128A117008831206
:100EAA000313A2007108A3005508A400A501240891
:100EBA00F2002508F3000A30F0000030F1000A16AB
:100ECA008A1168250A128A11700883120313A60070
:100EDA0003300310A60DFF3E031D6E2F0310260DCF
:100EEA002204F8007F30F80500300A168A115F21C3
:100EFA000A128A11013083120313E700D8018316FC
:100F0A000313A801A9016B30F4008830F500803082
:100F1A00F6000A168A11C8220A128A116B30F400E6
:100F2A008830F500C030F6000A168A11C8220A1263
:100F3A008A110130C62F2F303006031DA52FA62F88
:100F4A00C52F0130E700D80183160313A801A901B0
:100F5A006B30F4008830F5008030F6000A168A11EA
:100F6A00C8220A128A116B30F4008830F500C030AA
:100F7A00F6000A168A11C8220A128A110230C62FEE
:100F8A00003008008313EA30FD001130FE009C3067
:100F9A00FF00CB3084000A168A1150210A128A11E6
:100FAA006F30FD001030FE00B930FF00653084005C
:100FBA000A168A1150210A128A1183179030840066
:100FCA00E5300A168A1195200A128A118313A03075
:100FDA008400CB300A168A1195200A128A115130E0
:100FEA00840065300A168A1195200A128A11830133
:100FFA000A168A112F2E23342034203454344934CB
:10100A004D34453420342034203420344534563489
:10101A0020345334503420342034203400342D34D6
:10102A002D342D342D342D342D342D342D342D34AE
:10103A002D342D342D342D342D342D342D340D34BE
:10104A000A340034543449344D344534203420347D
:10105A002034203420344534563420345334503428
:10106A000D340A340034483448343A344D344D345B
:10107A003A34533453342034203420342034203446
:10108A0020342034203400345534733465347234B7
:10109A00203442346C346F3463346B3465346434D2
:1010AA002034203420342034003420345434493459
:1010BA004D3445342034203420342034203445340F
:1010CA0056342034203453345034003420342034FD
:1010DA002034203420342034203420342034203466
:1010EA0020342034203420342034203400344E3448
:1010FA004F3420344C344F3447345334203446343C
:10110A004F3455344E3444340D340A3400344634A2
:10111A004F3455344E34443420342034203420346F
:10112A002034203420342034203420340034433412
:10113A00483441344E34473445344434203420341E
:10114A0020342034203420342034203400344E34E7
:10115A004F3420344C344F34473453342034203401
:10116A0020342034203420342034203400345334C2
:10117A0055344334433445345334533420342034BF
:10118A0020342034203420342034203400344934AC
:10119A0053342034573452344F344E344734203485
:1011AA002034203420342034203420340034503485
:1011BA0041345334533457344F3452344434203442
:1011CA004934533420342034203420340034503409
:1011DA004C34453441345334453420345734413443
:1011EA0049345434203420342034203400344134F7
:1011FA007434743465346D347034743420344C343B
:10120A006534663474343A34203420340034443437
:10121A004F3457344E344C344F34413444342034F0
:10122A0044344F344E34453420342034003452345C
:10123A0045342D3445344E345434453452342034F4
:10124A005034413453345334203420340034443439
:10125A004F3457344E344C344F3441344434493487
:10126A004E3447342E342E342E3420340034203475
:10127A004E344F3420344C344F34473453342034B2
:10128A0046344F3455344E344434203400345234C6
:10129A0045342D3445344E3454344534523445346F
:1012AA0044342034503457344434203400344534E0
:1012BA004E3454344534523420344E344534573441
:1012CA0020345034413453345334203400345734A6
:1012DA0072346F346E34673420345034613473346A
:1012EA00733477346F3472346434203400344534C0
:1012FA006E34743465347234203450346134733447
:10130A00733477346F3472346434203400344C3498
:10131A006F34673473342034613472346534203462
:10132A0020342034203420342034003463346C34A4
:10133A0065346134723469346E346734203420344D
:10134A002034203420342034003444346F34773449
:10135A006E346C346F346134643420344C346F34FA
:10136A006734003453346534633420344C34653480
:10137A006634743420343A342034003443346834C4
:10138A0061346E34673465342034503461347334D4
:10139A007334003443346C34653461347234203429
:1013AA004C346F3467340034533465347434203425
:1013BA00543469346D3465340034563469346534D0
:1013CA00773420344C346F34673400344334203457
:1013DA00003447343134003447343234003447342B
:1013EA003334003447343434003447344E34003410
:0C13FA004F344E34003447345234003479
:10140A00F2000A168A119D200A128A15A0300A16BD
:10141A008A11CE200A128A1572080A168A11CE205B
:10142A000A128A150A168A11C3200A128A15A130CD
:10143A000A168A11CE200A128A1500300A168A1153
:10144A00DB210A128A15F3000A168A11A6200A124B
:10145A008A1573080800031083120313420D430D03
:10146A00C9004908031D3A2A3B2A442A0030C3000E
:10147A000030C2000030C1000030C000A52A400878
:10148A00C4004108C5004208C6004308C7001F300F
:10149A000310C70CC60CC50CC40CFF3E031D4D2A15
:1014AA004408C800C217FF30C005FF30C105FF302D
:1014BA00C2050030C3059630C902C91F652A662ACB
:1014CA007E2A4908803A973E03186C2A6D2A6E2AAA
:1014DA003B2A01300310C30CC20CC10CC00CFF3EE6
:1014EA00031D6F2A0130C907031D7C2A7D2A6E2A33
:1014FA00952A20304902031C832A842A902A3B2AEF
:10150A000130C4000310C00DC10DC20DC30DC40BC0
:10151A00872A0130C9024908031D942A952A852A77
:10152A0048080319992A9A2AA52AC009C109C20991
:10153A00C309C00A0319C10A0319C20A0319C30A53
:10154A00080083120313B1005F08031DAD2AAE2AF7
:10155A00CE2A3C30F4008930F5008030F6000A16B5
:10156A008A11C8220A128A156B30F4008830F500F5
:10157A00C030F6000A168A11C8220A128A152F30BC
:10158A00831203133106031DCB2ACC2AA12BE401B3
:10159A00A12B3E303106031DD32AD42ADC2A640843
:1015AA000319D82AD92A002B0130E402002B3D3036
:1015BA003106031DE12AE22AF92A5F08FF3EF700F5
:1015CA00FF3003180030F8007808803A803C031D89
:1015DA00F02A770864020318F32AF42A002B013050
:1015EA0083120313E407002B2F303106031DFE2A52
:1015FA00FF2A002BCC2A0A30F00083120313640856
:10160A000A168A1139210A128A1583120313B200A3
:10161A000030F4008830F5008030F6000A168A118E
:10162A00C8220A128A15831203136408303EA000E6
:10163A002030A10032080A128A1505220A128A15D8
:10164A0083120313A2000130B20732080A128A1564
:10165A0005220A128A1583120313A3000130B20766
:10166A003A30A40032080A128A1505220A128A158B
:10167A0083120313A5000130B20732080A128A1531
:10168A0005220A128A1583120313A6000130B20733
:10169A003A30A70032080A128A1505220A128A1558
:1016AA0083120313A8000130B20732080A128A15FE
:1016BA0005220A128A1583120313A9000130B20700
:1016CA002030AA0032080A128A1505220A128A153F
:1016DA0083120313AB000130B20732080A128A15CB
:1016EA0005220A128A1583120313AC000130B207CD
:1016FA002030AD0032080A128A1505220A128A150C
:10170A0083120313AE000130B20732080A128A1597
:10171A0005220A128A1583120313AF000130B20799
:10172A00B0012030F4000030F500C030F6000A168F
:10173A008A11C8220A128A150800FB012C30F4000B
:10174A008930F5008030F6000A168A11C8220A127A
:10175A008A15EC30F4008830F500C030F6000A161D
:10176A008A11C8220A128A152430F5008830F60038
:10177A000A168A11FC210A128A152730F5008830C8
:10178A00F6000A168A11FC210A128A151430F5008D
:10179A008830F6000A168A11FC210A128A15831269
:1017AA0003135F08031DDA2BDB2B082C7C30F500B2
:1017BA008830F6000A168A11FC210A128A15AC3002
:1017CA00F4008830F5008030F6000A168A11C82223
:1017DA000A128A158C30F4008830F500C030F60001
:1017EA000A168A11C8220A128A152730F9000D3002
:1017FA00F8002630F700F70B002CF80B002CF90B39
:10180A00002C0000CE2CFA01AF2C7B080A128A1594
:10181A0005220A128A150A168A11AF200A128A1597
:10182A000130FB077B080A128A1505220A128A155B
:10183A000A168A11AF200A128A150130FB073A30BC
:10184A000A168A11AF200A128A157B080A128A150B
:10185A0005220A128A150A168A11AF200A128A1557
:10186A000130FB077B080A128A1505220A128A151B
:10187A000A168A11AF200A128A150130FB073A307C
:10188A000A168A11AF200A128A157B080A128A15CB
:10189A0005220A128A150A168A11AF200A128A1517
:1018AA000130FB077B080A128A1505220A128A15DB
:1018BA000A168A11AF200A128A150130FB07203056
:1018CA000A168A11AF200A128A157B080A128A158B
:1018DA0005220A128A150A168A11AF200A128A15D7
:1018EA000130FB077B080A128A1505220A128A159B
:1018FA000A168A11AF200A128A150130FB07203016
:10190A000A168A11AF200A128A157B080A128A154A
:10191A0005220A128A150A168A11AF200A128A1596
:10192A000130FB077B080A128A1505220A128A155A
:10193A000A168A11AF200A128A150130FB072430D1
:10194A00F5008830F6000A168A11FC210A128A1557
:10195A000130FA07831203135F087A02031CB62CBC
:10196A00B72C0A2C0C30F4008930F5008030F600D0
:10197A000A168A11C8220A128A15BC30F400883065
:10198A00F500C030F6000A168A11C8220A128A1512
:10199A00FA2B080083120313BA003E303A06031DDD
:1019AA00D72CD82CEB2C5903031DDC2CDD2CE32C73
:1019BA00D901013083120313E900A32D5A08031930
:1019CA00E72CE82CA32D0130DA02DE2C3D303A0652
:1019DA00031DF02CF12C042D5908031DF52CF62CAF
:1019EA00FB2C0130D9000130E900A32D03305A0243
:1019FA000318002D012DA32D0130DA07DE2C373014
:101A0A003A06031D092D0A2DA32D59085A07B700B6
:101A1A00922D01300A168A1173220A128A1583122C
:101A2A000313BA003A080A128A15A6220A128A155C
:101A3A002F30831203133A06031D242D252D0E2D54
:101A4A00DE2C0A168A115B240A128A15DE2C0A1267
:101A5A008A15A2230A128A15DE2C6B30F40088300C
:101A6A00F5008030F6000A168A11C8220A128A1571
:101A7A006B30F4008830F500C030F6000A168A117F
:101A8A00C8220A128A1501300A168A1173220A120A
:101A9A008A1583120313BA003A080A128A112625F4
:101AAA000A128A1583120313B300B4013308B8006B
:101ABA003408B90038033904031D642D652D672DD8
:101ACA00E001352E023038063904031D6D2D6E2DC6
:101ADA00482DDE2C01300A168A1173220A128A1541
:101AEA0083120313BA003A080A128A111E210A1233
:101AFA008A157B0883120313B6007A08B5003503EA
:101B0A003604031D892D8A2D8B2DDE2C2F303A06A3
:101B1A00031D902D912D6F2DDE2C3708003A0319E5
:101B2A000E2D013A0319262D033A03192C2D013AD9
:101B3A000319322D073A03196F2DDE2C6908031990
:101B4A00A72DA82D352EE9016B30F4008830F50059
:101B5A008030F6000A168A11C8220A128A156B30DA
:101B6A00F4008830F500C030F6000A168A11C8223F
:101B7A000A128A15831203135908031DC52DC62D8F
:101B8A00FF2D8030F8002A300A168A11F1200A1235
:101B9A008A15831203135A08B3003307DB3E840005
:101BAA0083130008F400840A00088403F5008230D5
:101BBA00F6000A168A11C8220A128A1504308312FC
:101BCA0003135A020318EA2DEB2D352E5A08B300D7
:101BDA003307DD3E840083130008F400840A0008FA
:101BEA008403F500C230F6000A168A11C8220A12C6
:101BFA008A15352E5A08B3003307DB3E8400831357
:101C0A000008F400840A00088403F5008230F60014
:101C1A000A168A11C8220A128A15C030F8002A3018
:101C2A000A168A11F1200A128A1504308312031344
:101C3A005A020318212E222E352E5A08B3003307D2
:101C4A00DD3E840083130008F400840A000884033C
:101C5A00F500C230F6000A168A11C8220A128A153D
:101C6A000800831203132D08B7008030B7052D082A
:101C7A00AE002E07BE00AC1F432E442E452E3E1446
:101C8A003E080319492E4A2E5A2E3E0A031D4E2E8D
:101C9A004F2E572E0030AD000030AC000030AB00A4
:101CAA000030AA00AC17AD01622E0030AD00003042
:101CBA00AC000030AB000030AA0029088039B70612
:101CCA002908AE002E07BF00A81F6C2E6D2E6E2E9F
:101CDA003F143F080319722E732E832E3F0A031DE9
:101CEA00772E782E802E0030A9000030A800003010
:101CFA00A7000030A600A817A9018B2E0030A90062
:101D0A000030A8000030A7000030A60029082804E7
:101D1A0027042604031D922E932EAA2E0030AD000E
:101D2A000030AC000030AB000030AA008030AC04B8
:101D3A007F30AD043708AD042D08A9002C08A8008F
:101D4A002B08A7002A08A600FF2F3E08031DAE2E67
:101D5A00AF2EB82E0030A9000030A8000030A7002E
:101D6A000030A600FF2F3E08AE00AF012F08B100D9
:101D7A003F082E02B000031CB10330087F3EB800B2
:101D8A0031080318013E003EB9002D08B6002C08A0
:101D9A00B5002B08B4002A08B3000030AD000030AB
:101DAA00AC000030AB000030AA000030BD000030AB
:101DBA00BC000030BB000030BA00BF012C2F3F0826
:101DCA000319E82EE92E092F0130AE000310B30DD6
:101DDA00B40DB50DB60DAE0BEB2E0130AE000310EF
:101DEA00AA0DAB0DAC0DAD0DAE0BF42EBD1FFE2E24
:101DFA00FF2E002F2A140130AE000310BA0DBB0DBE
:101E0A00BC0DBD0DAE0B022F29083602031D172F7C
:101E1A0028083502031D172F27083402031D172F20
:101E2A0026083302031C1A2F1B2F2A2F3D172608B8
:101E3A00B3022708031C270FB4022808031C280F23
:101E4A00B5022908031C290FB6020130BF071A3050
:101E5A003F02031C312F322FE42E36083504340496
:101E6A0033040319392F3A2F592F3A14592F0130B5
:101E7A00AE000310AA0DAB0DAC0DAD0DAE0B3E2F8F
:101E8A00BD1F482F492F4A2F2A140130AE000310D4
:101E9A00BA0DBB0DBC0DBD0DAE0B4C2FFF30B807F4
:101EAA000318B90AFF30B907AC1F5C2F5D2F3C2F0E
:101EBA00BF01BD1F612F622F7E2FFF303A05AE0092
:101ECA00FF303B05AF00FF303C05B0007F303D05D9
:101EDA00B100310830042F042E040319752F762F10
:101EEA00792F0130BF007E2F2A1C7C2F7D2F7E2F59
:101EFA00762F3F080319822F832FB42F0130AA07A8
:101F0A00003003180130AB07003003180130AC076A
:101F1A00003003180130AD072D1C942F952FB42FD4
:101F2A002A08AE002B08AF002C08B0002D08B1001B
:101F3A000130B200310DB10CB00CAF0CAE0CB20BCB
:101F4A009F2F3108AD003008AC002F08AB002E08D7
:101F5A00AA000130B8070318B90A0030B9073908CE
:101F6A00803AFF0080307F02031DBD2FFF30380208
:101F7A00031CC02FC12FCF2FFF3083120313B800C9
:101F8A000030B9000030AD000030AC000030AB00CA
:101F9A000030AA00831203133908803AFF00803008
:101FAA007F02031DDA2F013038020318DD2FDE2FDE
:101FBA00EB2F83120313B801B9010030AD000030D2
:101FCA00AC000030AB000030AA00B7018312031343
:101FDA003808BE003E1CF22FF32FF52FAC17F72F4F
:101FEA007F30AC053E08AE0003102E0CAD0037085A
:101FFA00AD04A12E0800FF1B0A2883137F1883173C
:10200A000008840A0319FF0A08007F087F398A003A
:0A201A000408840A0319FF0A82007B
:102110008316031306083F3886000800831603134E
:102120009F17831203131F14080064008001840AA0
:10213000040603190034040696280A168A11E420BE
:102140000A168A1183160313111408000A168A113D
:10215000E4200A168A118316031311150800F400EF
:10216000831203130C1EB528B628B02874089900F2
:102170000800013401340134013401341E340334C5
:102180000134FF3401340A168A11A6200A168A1176
:102190000A168A119D200A168A110800F0000A16F4
:1021A0008A11E4200A168A1170088312031393001F
:1021B0000800831603138801091189100A168A1171
:1021C00005250A168A110800831603131419E92835
:1021D000EA28E42811081F39031DEF28F028E42815
:1021E0000800F900F00178080A168A1159230A1626
:1021F0008A11F001F00A79080A168A1159230A1681
:102200008A11080000300A168A119D220A168A11C6
:10221000FA007F30FA057A08F80000300A168A11B1
:102220005F210A168A110800831603130713871704
:10223000181581309900181283120313981783160A
:102240000313981683120313181608007008F3007E
:102250007108F10A840083130008F2007308F30A7E
:102260008400720880000008031D372938292829B6
:102270000800F200F101721C3E293F294129700833
:10228000F1070310F00D0310F20C7208031D492929
:102290004A293B29710808007E088A007F088200CD
:1022A0000A168A114C210A168A118000840A040831
:1022B0007D0603190034FF0A0319FE0A5029F900AC
:1022C0000A168A119D200A168A11D0300A168A1120
:1022D000CE200A168A1179080A168A11CE200A160B
:1022E0008A1178080A168A11CE200A168A110A164F
:1022F0008A11A6200A168A110800F5007508F20056
:1023000003300310F20DFF3E031D812983120313D6
:102310001F08C73972049F001F151F1990299129A2
:102320008D291E08F400831603131E08F300740899
:10233000F1007308F0000800FD348934FA34893460
:10234000EE348934F1348934F4348934F7348934FF
:1023500000348A34EB348934E2348934CF3489341C
:10236000AA348934D9348934C3348934313431348A
:102370003034303400347408840002300A168A1174
:102380009D220A168A1183138000740A840001308A
:102390000A168A119D220A168A1183138000740876
:1023A000023E840000300A168A119D220A168A1104
:1023B000831380000800F0000A168A11E4200A1630
:1023C0008A118316031391150A168A11E4200A163E
:1023D0008A11831203131308F1007003031DF129FE
:1023E000F229F629831603139116F929831603138C
:1023F0009112111671080800112A7608FF0075085D
:1024000084000A168A1100200A168A110A168A11F7
:10241000AF200A168A110130F5070318F60A0030BA
:10242000F607760883120313FF00750884000A1666
:102430008A1100200A168A11003A031D202A212A37
:10244000FD290800272A0130F0070130F107710843
:10245000840083130008F2007008840000087206EC
:10246000031D332A342A3B2A700884000008031D08
:102470003A2A3B2A232A710884000008F2007008D7
:1024800084000008F30072087302F000F101031CDD
:10249000F10308000A168A118E200A168A110A16FC
:1024A0008A11D9200A168A110A168A1188200A165A
:1024B0008A11003083120313A3000130A20086307A
:1024C000A100A030A0000A168A1127230A168A113B
:1024D0000A168A1102210A168A110A168A11142173
:1024E0000A168A110800F1007108031D782A792A5A
:1024F0007E2A8312031306083F399C2A3F30831239
:1025000003130605F0003F3070060319882A892A54
:10251000902A6E0803198D2A8E2A902AEE01792AB4
:102520003F300605F0003F307006031D982A992AB7
:102530009B2A0130EE003F300800F2000A168A1193
:102540009D200A168A11D0300A168A11CE200A164A
:102550008A1172080A168A11CE200A168A110A16E2
:102560008A11C3200A168A11D1300A168A11CE2088
:102570000A168A1100300A168A11DB210A168A11FE
:10258000F3000A168A11A6200A168A117308080099
:10259000F00176080A168A1159230A168A11E62ACA
:1025A000F001F00A7508FF00740884000A168A1109
:1025B00000200A168A110A168A1159230A168A114E
:1025C0000130F4070318F50A0030F5077508831287
:1025D0000313FF00740884000A168A1100200A16EB
:1025E0008A11003A031DF52AF62AD02A0800F400C1
:1025F0000A168A119D200A168A11A0300A168A111D
:10260000CE200A168A1174080A168A11CE200A16DC
:102610008A1171080A168A11CE200A168A110A1622
:102620008A11A6200A168A11B830F2000B30F30086
:102630000130F2020030031CF303F302720A031D9F
:10264000252B730A031D252B262B182B080083121C
:10265000031394152008A4002108A5002208A60051
:102660002308A70002300310A40DA50DA60DA70D89
:10267000FF3E031D332B2708F3002608F200250830
:10268000F1002408F0000130F7003130F6002D3061
:10269000F5000030F4000A168A11CB250A168A11BB
:1026A0007008FF3E831603139300831203139416DE
:1026B0000800F30070185D2B612B831203130915BA
:1026C000642B8312031309117308F03988008914ED
:1026D000A630F100F10B6A2B00008312031389105E
:1026E00073080F39F10003300310F10DFF3E031D95
:1026F000742B0310710D88008914A630F100F10BC2
:102700007F2B00008312031389101B30F2009E30D0
:10271000F100F10B892BF20B892B000008007008E7
:1027200071040319942B952BC22B0130F400A12BBB
:1027300001300310F00DF10DFF3E031D992B013008
:10274000F407F11FA42BA52B982B71087302031D0E
:10275000AB2B70087202031CAE2BAF2BB52B70088D
:10276000F2027108031CF303F30201300310F10CB1
:10277000F00CFF3E031DB62B0130F402031DC12BEC
:10278000C22BA52B7308F1007208F0000800F401B9
:10279000F501700871040319CE2BCF2B042C0130E6
:1027A000F600DB2B01300310F00DF10DFF3E031D91
:1027B000D32B0130F607F11FDE2BDF2BD22B01309C
:1027C0000310F40DF50DFF3E031DE02B710873029D
:1027D000031DEC2B70087202031CEF2BF02BF72B60
:1027E0007008F2027108031CF303F3027414013041
:1027F0000310F10CF00CFF3E031DF82B0130F60224
:10280000031D032C042CDF2B7508F1007408F00065
:1028100008007708840083130008F80004300310D0
:10282000F80CFF3E031D0F2C78080339303E831649
:102830000313B0007708840000080F39303EB10060
:102840003A30B200770A84000008F8000430031020
:10285000F80CFF3E031D272C78080739303EB300E3
:10286000770A840000080F39303EB4003A30B500D2
:102870007708023E84000008F80004300310F80CCA
:10288000FF3E031D3E2C78080739303EB60077081E
:10289000023E840000080F39303EB700B801B03066
:1028A000F4000030F500C030F6000A168A11C82284
:1028B0000A168A1108008312031368080319612C91
:1028C000622C802CDF018C30F4008930F5008030E0
:1028D000F6000A168A11C8220A168A119B30F400E3
:1028E0008930F500C030F6000A168A11C8220A168F
:1028F0008A1183120313E80183160313AA01AB01A3
:10290000831603132B08F8002A08F700AA0A0319F4
:10291000AB0AC33078025030031977020318912CA8
:10292000922C932CAD2C013083120313E8006B30F2
:10293000F4008830F5008030F6000A168A11C822AB
:102940000A168A116B30F4008830F500C030F600AA
:102950000A168A11C8220A168A110800F501F31F07
:10296000B22CB32CBA2CF209F309F20A0319F30AB8
:102970000130F500F11FBD2CBE2CC32CF009F1096C
:10298000F00A0319F10A700871040319C82CC92C44
:10299000F62C0130F400D52C01300310F00DF10DB0
:1029A000FF3E031DCD2C0130F407F11FD82CD92C8C
:1029B000CC2C71087302031DDF2C70087202031CFB
:1029C000E22CE32CE92C7008F2027108031CF303DB
:1029D000F30201300310F10CF00CFF3E031DEA2C52
:1029E0000130F402031DF52CF62CD92C75080319BF
:1029F000FA2CFB2C002DF209F309F20A0319F30A51
:102A00007308F1007208F0000800C330F500CD3003
:102A1000F400F40B092DF50B092DF00133300A16E3
:102A20008A1159230A168A111B30F5009E30F400D2
:102A3000F40B182DF50B182D0000F00133300A1699
:102A40008A1159230A168A11A630F400F40B262D98
:102A50000000F00133300A168A1159230A168A1130
:102A6000312D322D0000F00102300A168A1159234F
:102A70000A168A11A630F400F40B3C2D0000F00178
:102A800028300A168A1159230A168A11A630F40032
:102A9000F40B482D0000F00101300A168A11592369
:102AA0000A168A110430F5003D30F400F40B562D5F
:102AB000F50B562D5B2DF0010C300A168A115923A7
:102AC0000A168A11A630F400F40B642D00000800E9
:102AD000F501F11F6C2D6D2D742DF009F109F00A2F
:102AE0000319F10A0130F500F31F772D782D7F2DA2
:102AF000F209F309F20A0319F30A0130F506F601A7
:102B0000F701700871040319862D872DBC2D013043
:102B1000F400932D01300310F00DF10DFF3E031D65
:102B20008B2D0130F407F11F962D972D8A2D013042
:102B30000310F60DF70DFF3E031D982D710873026B
:102B4000031DA42D70087202031CA72DA82DAF2D04
:102B50007008F2027108031CF303F30276140130CB
:102B60000310F10CF00CFF3E031DB02D0130F402F8
:102B7000031DBB2DBC2D972D75080319C02DC12D2C
:102B8000C62DF609F709F60A0319F70A7708F100C6
:102B90007608F00008000030FC000030FB00003038
:102BA000FA000030F900730872047104700403190C
:102BB000DA2DDB2D262E0130FD00E92D0130F80045
:102BC0000310F00DF10DF20DF30DF80BE02D0130B7
:102BD000FD07F31FEC2DED2DDE2D0130F800031065
:102BE000F90DFA0DFB0DFC0DF80BEF2D73087702B4
:102BF000031D042E72087602031D042E710875024F
:102C0000031D042E70087402031C072E082E172EB5
:102C10007008F4027108031C710FF5027208031C9E
:102C2000720FF6027308031C730FF7027914013058
:102C30000310F30CF20CF10CF00CFF3E031D182EE8
:102C40000130FD02031D252E262EED2D7C08F300FC
:102C50007B08F2007A08F1007908F00008000A16F3
:102C60008A114A220A168A1101300A168A11732221
:102C70000A168A1183120313D0006008031D412E27
:102C8000422E882E50080A128A1105200A168A112F
:102C90003730831203135006031D4F2E502E342E4F
:102CA0006B30F4008830F5008030F6000A168A1187
:102CB000C8220A168A116B30F4008830F500C03043
:102CC000F6000A168A11C8220A168A1101300A165D
:102CD0008A1173220A168A1183120313D000500836
:102CE0000A128A11E9220A168A1183120313CF00ED
:102CF0004F03031D7C2E7D2E802E0130E000342EEC
:102D000002304F06031D852E862E662EE001342EDE
:102D10006003031D8C2E8D2E342E50080A128A1546
:102D2000CF240A168A11342E0A128A110028FC01B7
:102D3000FD0102307C067D0403199F2EA02EBA2EC1
:102D400005307C067D04031DA62EA72EA82EBA2EC4
:102D50007C08B03E840083130008F1008312031343
:102D60005E080A168A11F7220A168A1101308312A8
:102D70000313DE070130FC070318FD0A0030FD07CE
:102D80007D08803AFF0080307F02031DC92E083085
:102D90007C02031CCC2ECD2E992E831203135108D6
:102DA000F5007507CB3E840083130008F600840A03
:102DB0000008F7007708FF00760884000A168A11D9
:102DC00000200A168A11F1005E080A168A11F722FD
:102DD0000A168A11013083120313DE070130F50051
:102DE0005108F6007607CB3E840083130008F700F5
:102DF000840A0008F80075087707FA007808F900D7
:102E00000318F90AF51BF9037908FB007B08FF009A
:102E10007A0884000A168A1100200A168A11F10025
:102E20005E080A168A11F7220A168A1101308312E7
:102E30000313DE07831603134808F10083120313FC
:102E40005E080A168A11F7220A168A1101308312C7
:102E50000313DE07831603134908F10083120313DB
:102E60005E080A168A11F7220A168A1101308312A7
:102E70000313DE0764305E02031C3F2F402F412FF7
:102E8000DE010A305F020318462F472F492F013019
:102E9000DF07080083120313A00020080319512F35
:102EA000522F662FF91F552F562F662F7609A20035
:102EB0007709A3007809A4007909A500A20A0319DB
:102EC000A30A0319A40A0319A50A6E2F7908A500FD
:102ED0007808A4007708A3007608A200790878048F
:102EE00077047604031D752F762F7F2F0030F900AD
:102EF0000030F8000030F7000030F600FF2F963069
:102F0000A1008D2F0130A10701300310A50CA40CE6
:102F1000A30CA20CFF3E031D852FFE302505031DCB
:102F2000922F932F822FAD2F0130A1070130A207DE
:102F3000003003180130A307003003180130A40744
:102F4000003003180130A50701300310A50CA40CB4
:102F5000A30CA20CFF3E031DA52FFF302505031D6A
:102F6000B22FB32F942FBF2F0130A1020130FA00EE
:102F70000310A20DA30DA40DA50DFA0BB82FA41BD1
:102F8000C22FC32FC92F023021020318C82FC92F07
:102F9000B42F2118CC2FCD2FD52FFF30A205FF3015
:102FA000A3057F30A405FF30A5050310A10C21085F
:102FB000FA00FB01FC01FD0118300310FA0DFB0DB6
:102FC000FC0DFD0DFF3E031DDD2F7A08A2047B08DA
:102FD000A3047C08A4047D08A50420080319F12F8C
:102FE000F22FF72FF91FF52FF62FF72FA51725082A
:102FF000F9002408F8002308F7002208F60008006A
:02400E00FB3F76
:00000001FF
